{
  "contractName": "IdentityManagement",
  "abi": [
    {
      "inputs": [],
      "stateMutability": "nonpayable",
      "type": "constructor"
    },
    {
      "inputs": [],
      "name": "admin",
      "outputs": [
        {
          "internalType": "address",
          "name": "",
          "type": "address"
        }
      ],
      "stateMutability": "view",
      "type": "function",
      "constant": true
    },
    {
      "inputs": [
        {
          "internalType": "uint256",
          "name": "",
          "type": "uint256"
        }
      ],
      "name": "allDocumentsforAdmin",
      "outputs": [
        {
          "internalType": "string",
          "name": "documentCID",
          "type": "string"
        },
        {
          "internalType": "string",
          "name": "documentName",
          "type": "string"
        },
        {
          "internalType": "uint256",
          "name": "validityUpTo",
          "type": "uint256"
        },
        {
          "internalType": "bool",
          "name": "verified",
          "type": "bool"
        },
        {
          "internalType": "address",
          "name": "identityAddress",
          "type": "address"
        }
      ],
      "stateMutability": "view",
      "type": "function",
      "constant": true
    },
    {
      "inputs": [
        {
          "internalType": "string",
          "name": "",
          "type": "string"
        }
      ],
      "name": "documents",
      "outputs": [
        {
          "internalType": "string",
          "name": "documentCID",
          "type": "string"
        },
        {
          "internalType": "string",
          "name": "documentName",
          "type": "string"
        },
        {
          "internalType": "uint256",
          "name": "validityUpTo",
          "type": "uint256"
        },
        {
          "internalType": "bool",
          "name": "verified",
          "type": "bool"
        },
        {
          "internalType": "address",
          "name": "identityAddress",
          "type": "address"
        }
      ],
      "stateMutability": "view",
      "type": "function",
      "constant": true
    },
    {
      "inputs": [
        {
          "internalType": "address",
          "name": "",
          "type": "address"
        }
      ],
      "name": "identities",
      "outputs": [
        {
          "internalType": "string",
          "name": "name",
          "type": "string"
        },
        {
          "internalType": "string",
          "name": "email",
          "type": "string"
        },
        {
          "internalType": "string",
          "name": "phoneNumber",
          "type": "string"
        },
        {
          "internalType": "uint256",
          "name": "createdAt",
          "type": "uint256"
        },
        {
          "internalType": "bool",
          "name": "verified",
          "type": "bool"
        },
        {
          "internalType": "bool",
          "name": "hasGovCertificate",
          "type": "bool"
        },
        {
          "internalType": "bool",
          "name": "govCertificateVerified",
          "type": "bool"
        },
        {
          "internalType": "string",
          "name": "govCertificateCID",
          "type": "string"
        },
        {
          "internalType": "string",
          "name": "physicalAddress",
          "type": "string"
        }
      ],
      "stateMutability": "view",
      "type": "function",
      "constant": true
    },
    {
      "inputs": [
        {
          "internalType": "uint256",
          "name": "",
          "type": "uint256"
        }
      ],
      "name": "identityAddresses",
      "outputs": [
        {
          "internalType": "address",
          "name": "",
          "type": "address"
        }
      ],
      "stateMutability": "view",
      "type": "function",
      "constant": true
    },
    {
      "inputs": [
        {
          "internalType": "string",
          "name": "",
          "type": "string"
        }
      ],
      "name": "verifiedCertificates",
      "outputs": [
        {
          "internalType": "bool",
          "name": "",
          "type": "bool"
        }
      ],
      "stateMutability": "view",
      "type": "function",
      "constant": true
    },
    {
      "inputs": [
        {
          "internalType": "string",
          "name": "",
          "type": "string"
        }
      ],
      "name": "verifiedDocuments",
      "outputs": [
        {
          "internalType": "bool",
          "name": "",
          "type": "bool"
        }
      ],
      "stateMutability": "view",
      "type": "function",
      "constant": true
    },
    {
      "inputs": [
        {
          "internalType": "string",
          "name": "name",
          "type": "string"
        },
        {
          "internalType": "string",
          "name": "email",
          "type": "string"
        },
        {
          "internalType": "string",
          "name": "phoneNumber",
          "type": "string"
        },
        {
          "internalType": "string",
          "name": "physicalAddress",
          "type": "string"
        },
        {
          "internalType": "string",
          "name": "govCertificateCID",
          "type": "string"
        }
      ],
      "name": "createIdentity",
      "outputs": [],
      "stateMutability": "nonpayable",
      "type": "function"
    },
    {
      "inputs": [
        {
          "internalType": "string",
          "name": "govCertificateCID",
          "type": "string"
        }
      ],
      "name": "verifyGovCertificate",
      "outputs": [],
      "stateMutability": "nonpayable",
      "type": "function"
    },
    {
      "inputs": [
        {
          "internalType": "address",
          "name": "identityAddress",
          "type": "address"
        }
      ],
      "name": "rejectUser",
      "outputs": [],
      "stateMutability": "nonpayable",
      "type": "function"
    },
    {
      "inputs": [
        {
          "internalType": "string",
          "name": "documentCID",
          "type": "string"
        },
        {
          "internalType": "string",
          "name": "documentName",
          "type": "string"
        }
      ],
      "name": "uploadDocument",
      "outputs": [],
      "stateMutability": "nonpayable",
      "type": "function"
    },
    {
      "inputs": [
        {
          "internalType": "string",
          "name": "documentCID",
          "type": "string"
        }
      ],
      "name": "verifyDocument",
      "outputs": [
        {
          "internalType": "bool",
          "name": "",
          "type": "bool"
        }
      ],
      "stateMutability": "nonpayable",
      "type": "function"
    },
    {
      "inputs": [],
      "name": "getDocumentCount",
      "outputs": [
        {
          "internalType": "uint256",
          "name": "",
          "type": "uint256"
        }
      ],
      "stateMutability": "view",
      "type": "function",
      "constant": true
    },
    {
      "inputs": [
        {
          "internalType": "address",
          "name": "identityAddress",
          "type": "address"
        }
      ],
      "name": "getDocuments",
      "outputs": [
        {
          "components": [
            {
              "internalType": "string",
              "name": "documentCID",
              "type": "string"
            },
            {
              "internalType": "string",
              "name": "documentName",
              "type": "string"
            },
            {
              "internalType": "uint256",
              "name": "validityUpTo",
              "type": "uint256"
            },
            {
              "internalType": "bool",
              "name": "verified",
              "type": "bool"
            },
            {
              "internalType": "address",
              "name": "identityAddress",
              "type": "address"
            }
          ],
          "internalType": "struct IdentityManagement.Document[]",
          "name": "",
          "type": "tuple[]"
        }
      ],
      "stateMutability": "view",
      "type": "function",
      "constant": true
    },
    {
      "inputs": [],
      "name": "getAllDocument",
      "outputs": [
        {
          "components": [
            {
              "internalType": "string",
              "name": "documentCID",
              "type": "string"
            },
            {
              "internalType": "string",
              "name": "documentName",
              "type": "string"
            },
            {
              "internalType": "uint256",
              "name": "validityUpTo",
              "type": "uint256"
            },
            {
              "internalType": "bool",
              "name": "verified",
              "type": "bool"
            },
            {
              "internalType": "address",
              "name": "identityAddress",
              "type": "address"
            }
          ],
          "internalType": "struct IdentityManagement.Document[]",
          "name": "",
          "type": "tuple[]"
        }
      ],
      "stateMutability": "view",
      "type": "function",
      "constant": true
    },
    {
      "inputs": [
        {
          "internalType": "address",
          "name": "identityAddress",
          "type": "address"
        }
      ],
      "name": "getIdentity",
      "outputs": [
        {
          "components": [
            {
              "internalType": "string",
              "name": "name",
              "type": "string"
            },
            {
              "internalType": "string",
              "name": "email",
              "type": "string"
            },
            {
              "internalType": "string",
              "name": "phoneNumber",
              "type": "string"
            },
            {
              "internalType": "uint256",
              "name": "createdAt",
              "type": "uint256"
            },
            {
              "internalType": "bool",
              "name": "verified",
              "type": "bool"
            },
            {
              "internalType": "bool",
              "name": "hasGovCertificate",
              "type": "bool"
            },
            {
              "internalType": "bool",
              "name": "govCertificateVerified",
              "type": "bool"
            },
            {
              "internalType": "string",
              "name": "govCertificateCID",
              "type": "string"
            },
            {
              "components": [
                {
                  "internalType": "string",
                  "name": "documentCID",
                  "type": "string"
                },
                {
                  "internalType": "string",
                  "name": "documentName",
                  "type": "string"
                },
                {
                  "internalType": "uint256",
                  "name": "validityUpTo",
                  "type": "uint256"
                },
                {
                  "internalType": "bool",
                  "name": "verified",
                  "type": "bool"
                },
                {
                  "internalType": "address",
                  "name": "identityAddress",
                  "type": "address"
                }
              ],
              "internalType": "struct IdentityManagement.Document[]",
              "name": "AllDocuments",
              "type": "tuple[]"
            },
            {
              "internalType": "string",
              "name": "physicalAddress",
              "type": "string"
            }
          ],
          "internalType": "struct IdentityManagement.Identity",
          "name": "",
          "type": "tuple"
        }
      ],
      "stateMutability": "view",
      "type": "function",
      "constant": true
    },
    {
      "inputs": [],
      "name": "getIdentities",
      "outputs": [
        {
          "components": [
            {
              "internalType": "string",
              "name": "name",
              "type": "string"
            },
            {
              "internalType": "string",
              "name": "email",
              "type": "string"
            },
            {
              "internalType": "string",
              "name": "phoneNumber",
              "type": "string"
            },
            {
              "internalType": "uint256",
              "name": "createdAt",
              "type": "uint256"
            },
            {
              "internalType": "bool",
              "name": "verified",
              "type": "bool"
            },
            {
              "internalType": "bool",
              "name": "hasGovCertificate",
              "type": "bool"
            },
            {
              "internalType": "bool",
              "name": "govCertificateVerified",
              "type": "bool"
            },
            {
              "internalType": "string",
              "name": "govCertificateCID",
              "type": "string"
            },
            {
              "components": [
                {
                  "internalType": "string",
                  "name": "documentCID",
                  "type": "string"
                },
                {
                  "internalType": "string",
                  "name": "documentName",
                  "type": "string"
                },
                {
                  "internalType": "uint256",
                  "name": "validityUpTo",
                  "type": "uint256"
                },
                {
                  "internalType": "bool",
                  "name": "verified",
                  "type": "bool"
                },
                {
                  "internalType": "address",
                  "name": "identityAddress",
                  "type": "address"
                }
              ],
              "internalType": "struct IdentityManagement.Document[]",
              "name": "AllDocuments",
              "type": "tuple[]"
            },
            {
              "internalType": "string",
              "name": "physicalAddress",
              "type": "string"
            }
          ],
          "internalType": "struct IdentityManagement.Identity[]",
          "name": "",
          "type": "tuple[]"
        }
      ],
      "stateMutability": "view",
      "type": "function",
      "constant": true
    },
    {
      "inputs": [
        {
          "internalType": "address",
          "name": "identityAddress",
          "type": "address"
        }
      ],
      "name": "isRegistered",
      "outputs": [
        {
          "internalType": "bool",
          "name": "",
          "type": "bool"
        }
      ],
      "stateMutability": "view",
      "type": "function",
      "constant": true
    },
    {
      "inputs": [],
      "name": "isAdmin",
      "outputs": [
        {
          "internalType": "bool",
          "name": "",
          "type": "bool"
        }
      ],
      "stateMutability": "view",
      "type": "function",
      "constant": true
    },
    {
      "inputs": [
        {
          "internalType": "string",
          "name": "documentCID",
          "type": "string"
        }
      ],
      "name": "isVerified",
      "outputs": [
        {
          "internalType": "bool",
          "name": "",
          "type": "bool"
        },
        {
          "components": [
            {
              "internalType": "string",
              "name": "documentCID",
              "type": "string"
            },
            {
              "internalType": "string",
              "name": "documentName",
              "type": "string"
            },
            {
              "internalType": "uint256",
              "name": "validityUpTo",
              "type": "uint256"
            },
            {
              "internalType": "bool",
              "name": "verified",
              "type": "bool"
            },
            {
              "internalType": "address",
              "name": "identityAddress",
              "type": "address"
            }
          ],
          "internalType": "struct IdentityManagement.Document",
          "name": "",
          "type": "tuple"
        },
        {
          "components": [
            {
              "internalType": "string",
              "name": "name",
              "type": "string"
            },
            {
              "internalType": "string",
              "name": "email",
              "type": "string"
            },
            {
              "internalType": "string",
              "name": "phoneNumber",
              "type": "string"
            },
            {
              "internalType": "uint256",
              "name": "createdAt",
              "type": "uint256"
            },
            {
              "internalType": "bool",
              "name": "verified",
              "type": "bool"
            },
            {
              "internalType": "bool",
              "name": "hasGovCertificate",
              "type": "bool"
            },
            {
              "internalType": "bool",
              "name": "govCertificateVerified",
              "type": "bool"
            },
            {
              "internalType": "string",
              "name": "govCertificateCID",
              "type": "string"
            },
            {
              "components": [
                {
                  "internalType": "string",
                  "name": "documentCID",
                  "type": "string"
                },
                {
                  "internalType": "string",
                  "name": "documentName",
                  "type": "string"
                },
                {
                  "internalType": "uint256",
                  "name": "validityUpTo",
                  "type": "uint256"
                },
                {
                  "internalType": "bool",
                  "name": "verified",
                  "type": "bool"
                },
                {
                  "internalType": "address",
                  "name": "identityAddress",
                  "type": "address"
                }
              ],
              "internalType": "struct IdentityManagement.Document[]",
              "name": "AllDocuments",
              "type": "tuple[]"
            },
            {
              "internalType": "string",
              "name": "physicalAddress",
              "type": "string"
            }
          ],
          "internalType": "struct IdentityManagement.Identity",
          "name": "",
          "type": "tuple"
        }
      ],
      "stateMutability": "view",
      "type": "function",
      "constant": true
    }
  ],
  "bytecode": "0x60806040523480156200001157600080fd5b5033600460006101000a81548173ffffffffffffffffffffffffffffffffffffffff021916908373ffffffffffffffffffffffffffffffffffffffff16021790555060008060003373ffffffffffffffffffffffffffffffffffffffff1673ffffffffffffffffffffffffffffffffffffffff16815260200190815260200160002090506040518060400160405280600581526020017f41646d696e000000000000000000000000000000000000000000000000000000815250816000019081620000dd919062000520565b506040518060400160405280600f81526020017f61646d696e40676d61696c2e636f6d000000000000000000000000000000000081525081600101908162000126919062000520565b506040518060400160405280600a81526020017f31323334353637383930000000000000000000000000000000000000000000008152508160020190816200016f919062000520565b506040518060400160405280600d81526020017f41646d696e204164647265737300000000000000000000000000000000000000815250816007019081620001b8919062000520565b5042816003018190555060018160040160006101000a81548160ff02191690831515021790555060018160040160016101000a81548160ff02191690831515021790555060018160040160026101000a81548160ff021916908315150217905550604051806020016040528060008152508160050190816200023b919062000520565b506005339080600181540180825580915050600190039060005260206000200160009091909190916101000a81548173ffffffffffffffffffffffffffffffffffffffff021916908373ffffffffffffffffffffffffffffffffffffffff1602179055505062000607565b600081519050919050565b7f4e487b7100000000000000000000000000000000000000000000000000000000600052604160045260246000fd5b7f4e487b7100000000000000000000000000000000000000000000000000000000600052602260045260246000fd5b600060028204905060018216806200032857607f821691505b6020821081036200033e576200033d620002e0565b5b50919050565b60008190508160005260206000209050919050565b60006020601f8301049050919050565b600082821b905092915050565b600060088302620003a87fffffffffffffffffffffffffffffffffffffffffffffffffffffffffffffffff8262000369565b620003b4868362000369565b95508019841693508086168417925050509392505050565b6000819050919050565b6000819050919050565b600062000401620003fb620003f584620003cc565b620003d6565b620003cc565b9050919050565b6000819050919050565b6200041d83620003e0565b620004356200042c8262000408565b84845462000376565b825550505050565b600090565b6200044c6200043d565b6200045981848462000412565b505050565b5b8181101562000481576200047560008262000442565b6001810190506200045f565b5050565b601f821115620004d0576200049a8162000344565b620004a58462000359565b81016020851015620004b5578190505b620004cd620004c48562000359565b8301826200045e565b50505b505050565b600082821c905092915050565b6000620004f560001984600802620004d5565b1980831691505092915050565b6000620005108383620004e2565b9150826002028217905092915050565b6200052b82620002a6565b67ffffffffffffffff811115620005475762000546620002b1565b5b6200055382546200030f565b6200056082828562000485565b600060209050601f83116001811462000598576000841562000583578287015190505b6200058f858262000502565b865550620005ff565b601f198416620005a88662000344565b60005b82811015620005d257848901518255600182019150602085019450602081019050620005ab565b86831015620005f25784890151620005ee601f891682620004e2565b8355505b6001600288020188555050505b505050505050565b614f7380620006176000396000f3fe608060405234801561001057600080fd5b506004361061012c5760003560e01c80637775495a116100ad578063b6db75a011610071578063b6db75a014610385578063beee5eb7146103a3578063c3c5a547146103d3578063f653b81e14610403578063f851a4401461043b5761012c565b80637775495a146102b1578063916293d1146102cf578063aa4513c414610303578063af045d6c14610333578063b3dd697b146103515761012c565b80633d1c2273116100f45780633d1c22731461020f5780634464fe331461022d5780634dc92885146102495780635c6ee7bf146102655780636ecc0cb4146102955761012c565b806316146e6a146101315780632178c9241461014d578063234c76d51461017d57806327f50a2d146101af5780632fea7b81146101df575b600080fd5b61014b60048036038101906101469190613ae1565b610459565b005b61016760048036038101906101629190613c1e565b610adb565b6040516101749190613c8c565b60405180910390f35b61019760048036038101906101929190613ca7565b610b1a565b6040516101a693929190614070565b60405180910390f35b6101c960048036038101906101c491906140e1565b6112c7565b6040516101d69190614194565b60405180910390f35b6101f960048036038101906101f491906140e1565b611564565b60405161020691906141b6565b60405180910390f35b610217611af0565b60405161022491906141e7565b60405180910390f35b61024760048036038101906102429190614202565b611b99565b005b610263600480360381019061025e91906140e1565b611f64565b005b61027f600480360381019061027a9190613ca7565b612184565b60405161028c919061427a565b60405180910390f35b6102af60048036038101906102aa9190613ca7565b6121ba565b005b6102b9612430565b6040516102c69190614454565b60405180910390f35b6102e960048036038101906102e49190613c1e565b612b23565b6040516102fa9594939291906144c0565b60405180910390f35b61031d60048036038101906103189190613ca7565b612ca6565b60405161032a919061427a565b60405180910390f35b61033b612cdc565b6040516103489190614194565b60405180910390f35b61036b60048036038101906103669190613ca7565b612f6a565b60405161037c9594939291906144c0565b60405180910390f35b61038d6130f3565b60405161039a919061427a565b60405180910390f35b6103bd60048036038101906103b89190613ca7565b61314b565b6040516103ca919061427a565b60405180910390f35b6103ed60048036038101906103e891906140e1565b613556565b6040516103fa919061427a565b60405180910390f35b61041d600480360381019061041891906140e1565b6135a4565b60405161043299989796959493929190614521565b60405180910390f35b6104436138c1565b6040516104509190613c8c565b60405180910390f35b60008060003373ffffffffffffffffffffffffffffffffffffffff1673ffffffffffffffffffffffffffffffffffffffff16815260200190815260200160002060030154146104dd576040517f08c379a00000000000000000000000000000000000000000000000000000000081526004016104d49061461d565b60405180910390fd5b60008060003373ffffffffffffffffffffffffffffffffffffffff1673ffffffffffffffffffffffffffffffffffffffff1681526020019081526020016000209050858160000190816105309190614849565b50848160010190816105429190614849565b50838160020190816105549190614849565b50828160070190816105669190614849565b5042816003018190555060008160040160006101000a81548160ff02191690831515021790555060008160040160016101000a81548160ff02191690831515021790555060008160040160026101000a81548160ff021916908315150217905550818160050190816105d89190614849565b506005339080600181540180825580915050600190039060005260206000200160009091909190916101000a81548173ffffffffffffffffffffffffffffffffffffffff021916908373ffffffffffffffffffffffffffffffffffffffff1602179055507fc5d2460186f7233c927e7db2dcc703c0e500b653ca82273b7bfad8045d85a4708260405160200161066e9190614957565b60405160208183030381529060405280519060200120146106a75760018160040160016101000a81548160ff0219169083151502179055505b600115156001836040516106bb9190614957565b908152602001604051809103902060009054906101000a900460ff161515036107195760018160040160026101000a81548160ff02191690831515021790555060018160040160006101000a81548160ff0219169083151502179055505b60005b6005805490508110156108b9576000806000600584815481106107425761074161496e565b5b9060005260206000200160009054906101000a900473ffffffffffffffffffffffffffffffffffffffff1673ffffffffffffffffffffffffffffffffffffffff1673ffffffffffffffffffffffffffffffffffffffff1681526020019081526020016000209050600115158160040160009054906101000a900460ff161515036108a55760005b81600601805490508110156108a357846040516020016107e99190614957565b604051602081830303815290604052805190602001208260060182815481106108155761081461496e565b5b90600052602060002090600402016000016040516020016108369190614a20565b60405160208183030381529060405280519060200120036108905760018460040160026101000a81548160ff02191690831515021790555060018460040160006101000a81548160ff0219169083151502179055506108a3565b808061089b90614a66565b9150506107c9565b505b5080806108b190614a66565b91505061071c565b5060005b600580549050811015610a60576000806000600584815481106108e3576108e261496e565b5b9060005260206000200160009054906101000a900473ffffffffffffffffffffffffffffffffffffffff1673ffffffffffffffffffffffffffffffffffffffff1673ffffffffffffffffffffffffffffffffffffffff1681526020019081526020016000209050600115158160040160009054906101000a900460ff16151503610a4c5760005b8160060180549050811015610a4a578460405160200161098a9190614957565b604051602081830303815290604052805190602001208260060182815481106109b6576109b561496e565b5b90600052602060002090600402016000016040516020016109d79190614a20565b6040516020818303038152906040528051906020012003610a37576001826006018281548110610a0a57610a0961496e565b5b906000526020600020906004020160030160006101000a81548160ff021916908315150217905550610a4a565b8080610a4290614a66565b91505061096a565b505b508080610a5890614a66565b9150506108bd565b5060011515600183604051610a759190614957565b908152602001604051809103902060009054906101000a900460ff16151503610ad35760018160040160026101000a81548160ff02191690831515021790555060018160040160006101000a81548160ff0219169083151502179055505b505050505050565b60058181548110610aeb57600080fd5b906000526020600020016000915054906101000a900473ffffffffffffffffffffffffffffffffffffffff1681565b6000610b246138e7565b610b2c61392e565b6000600385604051610b3e9190614957565b90815260200160405180910390206040518060a0016040529081600082018054610b679061466c565b80601f0160208091040260200160405190810160405280929190818152602001828054610b939061466c565b8015610be05780601f10610bb557610100808354040283529160200191610be0565b820191906000526020600020905b815481529060010190602001808311610bc357829003601f168201915b50505050508152602001600182018054610bf99061466c565b80601f0160208091040260200160405190810160405280929190818152602001828054610c259061466c565b8015610c725780601f10610c4757610100808354040283529160200191610c72565b820191906000526020600020905b815481529060010190602001808311610c5557829003601f168201915b50505050508152602001600282015481526020016003820160009054906101000a900460ff161515151581526020016003820160019054906101000a900473ffffffffffffffffffffffffffffffffffffffff1673ffffffffffffffffffffffffffffffffffffffff1673ffffffffffffffffffffffffffffffffffffffff168152505090506000806000836080015173ffffffffffffffffffffffffffffffffffffffff1673ffffffffffffffffffffffffffffffffffffffff16815260200190815260200160002060405180610140016040529081600082018054610d589061466c565b80601f0160208091040260200160405190810160405280929190818152602001828054610d849061466c565b8015610dd15780601f10610da657610100808354040283529160200191610dd1565b820191906000526020600020905b815481529060010190602001808311610db457829003601f168201915b50505050508152602001600182018054610dea9061466c565b80601f0160208091040260200160405190810160405280929190818152602001828054610e169061466c565b8015610e635780601f10610e3857610100808354040283529160200191610e63565b820191906000526020600020905b815481529060010190602001808311610e4657829003601f168201915b50505050508152602001600282018054610e7c9061466c565b80601f0160208091040260200160405190810160405280929190818152602001828054610ea89061466c565b8015610ef55780601f10610eca57610100808354040283529160200191610ef5565b820191906000526020600020905b815481529060010190602001808311610ed857829003601f168201915b50505050508152602001600382015481526020016004820160009054906101000a900460ff161515151581526020016004820160019054906101000a900460ff161515151581526020016004820160029054906101000a900460ff16151515158152602001600582018054610f699061466c565b80601f0160208091040260200160405190810160405280929190818152602001828054610f959061466c565b8015610fe25780601f10610fb757610100808354040283529160200191610fe2565b820191906000526020600020905b815481529060010190602001808311610fc557829003601f168201915b5050505050815260200160068201805480602002602001604051908101604052809291908181526020016000905b828210156111e157838290600052602060002090600402016040518060a00160405290816000820180546110439061466c565b80601f016020809104026020016040519081016040528092919081815260200182805461106f9061466c565b80156110bc5780601f10611091576101008083540402835291602001916110bc565b820191906000526020600020905b81548152906001019060200180831161109f57829003601f168201915b505050505081526020016001820180546110d59061466c565b80601f01602080910402602001604051908101604052809291908181526020018280546111019061466c565b801561114e5780601f106111235761010080835404028352916020019161114e565b820191906000526020600020905b81548152906001019060200180831161113157829003601f168201915b50505050508152602001600282015481526020016003820160009054906101000a900460ff161515151581526020016003820160019054906101000a900473ffffffffffffffffffffffffffffffffffffffff1673ffffffffffffffffffffffffffffffffffffffff1673ffffffffffffffffffffffffffffffffffffffff168152505081526020019060010190611010565b5050505081526020016007820180546111f99061466c565b80601f01602080910402602001604051908101604052809291908181526020018280546112259061466c565b80156112725780601f1061124757610100808354040283529160200191611272565b820191906000526020600020905b81548152906001019060200180831161125557829003601f168201915b5050505050815250509050600115158160800151151514801561129d57506001151582606001511515145b156112b3576001828294509450945050506112c0565b6000828294509450945050505b9193909250565b606060008060008473ffffffffffffffffffffffffffffffffffffffff1673ffffffffffffffffffffffffffffffffffffffff1681526020019081526020016000209050600115158160040160009054906101000a900460ff16151514611363576040517f08c379a000000000000000000000000000000000000000000000000000000000815260040161135a90614afa565b60405180910390fd5b80600601805480602002602001604051908101604052809291908181526020016000905b8282101561155857838290600052602060002090600402016040518060a00160405290816000820180546113ba9061466c565b80601f01602080910402602001604051908101604052809291908181526020018280546113e69061466c565b80156114335780601f1061140857610100808354040283529160200191611433565b820191906000526020600020905b81548152906001019060200180831161141657829003601f168201915b5050505050815260200160018201805461144c9061466c565b80601f01602080910402602001604051908101604052809291908181526020018280546114789061466c565b80156114c55780601f1061149a576101008083540402835291602001916114c5565b820191906000526020600020905b8154815290600101906020018083116114a857829003601f168201915b50505050508152602001600282015481526020016003820160009054906101000a900460ff161515151581526020016003820160019054906101000a900473ffffffffffffffffffffffffffffffffffffffff1673ffffffffffffffffffffffffffffffffffffffff1673ffffffffffffffffffffffffffffffffffffffff168152505081526020019060010190611387565b50505050915050919050565b61156c61392e565b6000808373ffffffffffffffffffffffffffffffffffffffff1673ffffffffffffffffffffffffffffffffffffffff168152602001908152602001600020604051806101400160405290816000820180546115c69061466c565b80601f01602080910402602001604051908101604052809291908181526020018280546115f29061466c565b801561163f5780601f106116145761010080835404028352916020019161163f565b820191906000526020600020905b81548152906001019060200180831161162257829003601f168201915b505050505081526020016001820180546116589061466c565b80601f01602080910402602001604051908101604052809291908181526020018280546116849061466c565b80156116d15780601f106116a6576101008083540402835291602001916116d1565b820191906000526020600020905b8154815290600101906020018083116116b457829003601f168201915b505050505081526020016002820180546116ea9061466c565b80601f01602080910402602001604051908101604052809291908181526020018280546117169061466c565b80156117635780601f1061173857610100808354040283529160200191611763565b820191906000526020600020905b81548152906001019060200180831161174657829003601f168201915b50505050508152602001600382015481526020016004820160009054906101000a900460ff161515151581526020016004820160019054906101000a900460ff161515151581526020016004820160029054906101000a900460ff161515151581526020016005820180546117d79061466c565b80601f01602080910402602001604051908101604052809291908181526020018280546118039061466c565b80156118505780601f1061182557610100808354040283529160200191611850565b820191906000526020600020905b81548152906001019060200180831161183357829003601f168201915b5050505050815260200160068201805480602002602001604051908101604052809291908181526020016000905b82821015611a4f57838290600052602060002090600402016040518060a00160405290816000820180546118b19061466c565b80601f01602080910402602001604051908101604052809291908181526020018280546118dd9061466c565b801561192a5780601f106118ff5761010080835404028352916020019161192a565b820191906000526020600020905b81548152906001019060200180831161190d57829003601f168201915b505050505081526020016001820180546119439061466c565b80601f016020809104026020016040519081016040528092919081815260200182805461196f9061466c565b80156119bc5780601f10611991576101008083540402835291602001916119bc565b820191906000526020600020905b81548152906001019060200180831161199f57829003601f168201915b50505050508152602001600282015481526020016003820160009054906101000a900460ff161515151581526020016003820160019054906101000a900473ffffffffffffffffffffffffffffffffffffffff1673ffffffffffffffffffffffffffffffffffffffff1673ffffffffffffffffffffffffffffffffffffffff16815250508152602001906001019061187e565b505050508152602001600782018054611a679061466c565b80601f0160208091040260200160405190810160405280929190818152602001828054611a939061466c565b8015611ae05780601f10611ab557610100808354040283529160200191611ae0565b820191906000526020600020905b815481529060010190602001808311611ac357829003601f168201915b5050505050815250509050919050565b6000806000803373ffffffffffffffffffffffffffffffffffffffff1673ffffffffffffffffffffffffffffffffffffffff1681526020019081526020016000209050600115158160040160009054906101000a900460ff16151514611b8b576040517f08c379a0000000000000000000000000000000000000000000000000000000008152600401611b8290614afa565b60405180910390fd5b806006018054905091505090565b60008060003373ffffffffffffffffffffffffffffffffffffffff1673ffffffffffffffffffffffffffffffffffffffff1681526020019081526020016000209050600115158160040160009054906101000a900460ff161515148015611c155750600115158160040160029054906101000a900460ff161515145b611c54576040517f08c379a0000000000000000000000000000000000000000000000000000000008152600401611c4b90614afa565b60405180910390fd5b611c5c6138e7565b8381600001819052508281602001819052506301e1338042611c7e9190614b1a565b816040018181525050600081606001901515908115158152505033816080019073ffffffffffffffffffffffffffffffffffffffff16908173ffffffffffffffffffffffffffffffffffffffff1681525050816006018190806001815401808255809150506001900390600052602060002090600402016000909190919091506000820151816000019081611d139190614849565b506020820151816001019081611d299190614849565b506040820151816002015560608201518160030160006101000a81548160ff02191690831515021790555060808201518160030160016101000a81548173ffffffffffffffffffffffffffffffffffffffff021916908373ffffffffffffffffffffffffffffffffffffffff16021790555050506000600285604051611daf9190614957565b908152602001604051809103902060006101000a81548160ff02191690831515021790555080600385604051611de59190614957565b90815260200160405180910390206000820151816000019081611e089190614849565b506020820151816001019081611e1e9190614849565b506040820151816002015560608201518160030160006101000a81548160ff02191690831515021790555060808201518160030160016101000a81548173ffffffffffffffffffffffffffffffffffffffff021916908373ffffffffffffffffffffffffffffffffffffffff16021790555090505060068190806001815401808255809150506001900390600052602060002090600402016000909190919091506000820151816000019081611ed49190614849565b506020820151816001019081611eea9190614849565b506040820151816002015560608201518160030160006101000a81548160ff02191690831515021790555060808201518160030160016101000a81548173ffffffffffffffffffffffffffffffffffffffff021916908373ffffffffffffffffffffffffffffffffffffffff160217905550505050505050565b600460009054906101000a900473ffffffffffffffffffffffffffffffffffffffff1673ffffffffffffffffffffffffffffffffffffffff163373ffffffffffffffffffffffffffffffffffffffff1614611ff4576040517f08c379a0000000000000000000000000000000000000000000000000000000008152600401611feb90614b9a565b60405180910390fd5b60005b600580549050811015612180578173ffffffffffffffffffffffffffffffffffffffff166005828154811061202f5761202e61496e565b5b9060005260206000200160009054906101000a900473ffffffffffffffffffffffffffffffffffffffff1673ffffffffffffffffffffffffffffffffffffffff160361216d57600560016005805490506120899190614bba565b8154811061209a5761209961496e565b5b9060005260206000200160009054906101000a900473ffffffffffffffffffffffffffffffffffffffff16600582815481106120d9576120d861496e565b5b9060005260206000200160006101000a81548173ffffffffffffffffffffffffffffffffffffffff021916908373ffffffffffffffffffffffffffffffffffffffff160217905550600580548061213357612132614bee565b5b6001900381819060005260206000200160006101000a81549073ffffffffffffffffffffffffffffffffffffffff02191690559055612180565b808061217890614a66565b915050611ff7565b5050565b6001818051602081018201805184825260208301602085012081835280955050505050506000915054906101000a900460ff1681565b600460009054906101000a900473ffffffffffffffffffffffffffffffffffffffff1673ffffffffffffffffffffffffffffffffffffffff163373ffffffffffffffffffffffffffffffffffffffff161461224a576040517f08c379a000000000000000000000000000000000000000000000000000000000815260040161224190614c8f565b60405180910390fd5b6000151560018260405161225e9190614957565b908152602001604051809103902060009054906101000a900460ff161515146122bc576040517f08c379a00000000000000000000000000000000000000000000000000000000081526004016122b390614d21565b60405180910390fd5b600180826040516122cd9190614957565b908152602001604051809103902060006101000a81548160ff02191690831515021790555060005b60058054905081101561242c5760008060006005848154811061231b5761231a61496e565b5b9060005260206000200160009054906101000a900473ffffffffffffffffffffffffffffffffffffffff1673ffffffffffffffffffffffffffffffffffffffff1673ffffffffffffffffffffffffffffffffffffffff1681526020019081526020016000209050826040516020016123939190614957565b60405160208183030381529060405280519060200120816005016040516020016123bd9190614a20565b60405160208183030381529060405280519060200120036124185760018160040160026101000a81548160ff02191690831515021790555060018160040160006101000a81548160ff0219169083151502179055505061242c565b50808061242490614a66565b9150506122f5565b5050565b6060600460009054906101000a900473ffffffffffffffffffffffffffffffffffffffff1673ffffffffffffffffffffffffffffffffffffffff163373ffffffffffffffffffffffffffffffffffffffff16146124c2576040517f08c379a00000000000000000000000000000000000000000000000000000000081526004016124b990614db3565b60405180910390fd5b600060058054905067ffffffffffffffff8111156124e3576124e26139b6565b5b60405190808252806020026020018201604052801561251c57816020015b61250961392e565b8152602001906001900390816125015790505b50905060005b600580549050811015612b1b57600080600583815481106125465761254561496e565b5b9060005260206000200160009054906101000a900473ffffffffffffffffffffffffffffffffffffffff1673ffffffffffffffffffffffffffffffffffffffff1673ffffffffffffffffffffffffffffffffffffffff168152602001908152602001600020604051806101400160405290816000820180546125c79061466c565b80601f01602080910402602001604051908101604052809291908181526020018280546125f39061466c565b80156126405780601f1061261557610100808354040283529160200191612640565b820191906000526020600020905b81548152906001019060200180831161262357829003601f168201915b505050505081526020016001820180546126599061466c565b80601f01602080910402602001604051908101604052809291908181526020018280546126859061466c565b80156126d25780601f106126a7576101008083540402835291602001916126d2565b820191906000526020600020905b8154815290600101906020018083116126b557829003601f168201915b505050505081526020016002820180546126eb9061466c565b80601f01602080910402602001604051908101604052809291908181526020018280546127179061466c565b80156127645780601f1061273957610100808354040283529160200191612764565b820191906000526020600020905b81548152906001019060200180831161274757829003601f168201915b50505050508152602001600382015481526020016004820160009054906101000a900460ff161515151581526020016004820160019054906101000a900460ff161515151581526020016004820160029054906101000a900460ff161515151581526020016005820180546127d89061466c565b80601f01602080910402602001604051908101604052809291908181526020018280546128049061466c565b80156128515780601f1061282657610100808354040283529160200191612851565b820191906000526020600020905b81548152906001019060200180831161283457829003601f168201915b5050505050815260200160068201805480602002602001604051908101604052809291908181526020016000905b82821015612a5057838290600052602060002090600402016040518060a00160405290816000820180546128b29061466c565b80601f01602080910402602001604051908101604052809291908181526020018280546128de9061466c565b801561292b5780601f106129005761010080835404028352916020019161292b565b820191906000526020600020905b81548152906001019060200180831161290e57829003601f168201915b505050505081526020016001820180546129449061466c565b80601f01602080910402602001604051908101604052809291908181526020018280546129709061466c565b80156129bd5780601f10612992576101008083540402835291602001916129bd565b820191906000526020600020905b8154815290600101906020018083116129a057829003601f168201915b50505050508152602001600282015481526020016003820160009054906101000a900460ff161515151581526020016003820160019054906101000a900473ffffffffffffffffffffffffffffffffffffffff1673ffffffffffffffffffffffffffffffffffffffff1673ffffffffffffffffffffffffffffffffffffffff16815250508152602001906001019061287f565b505050508152602001600782018054612a689061466c565b80601f0160208091040260200160405190810160405280929190818152602001828054612a949061466c565b8015612ae15780601f10612ab657610100808354040283529160200191612ae1565b820191906000526020600020905b815481529060010190602001808311612ac457829003601f168201915b505050505081525050828281518110612afd57612afc61496e565b5b60200260200101819052508080612b1390614a66565b915050612522565b508091505090565b60068181548110612b3357600080fd5b9060005260206000209060040201600091509050806000018054612b569061466c565b80601f0160208091040260200160405190810160405280929190818152602001828054612b829061466c565b8015612bcf5780601f10612ba457610100808354040283529160200191612bcf565b820191906000526020600020905b815481529060010190602001808311612bb257829003601f168201915b505050505090806001018054612be49061466c565b80601f0160208091040260200160405190810160405280929190818152602001828054612c109061466c565b8015612c5d5780601f10612c3257610100808354040283529160200191612c5d565b820191906000526020600020905b815481529060010190602001808311612c4057829003601f168201915b5050505050908060020154908060030160009054906101000a900460ff16908060030160019054906101000a900473ffffffffffffffffffffffffffffffffffffffff16905085565b6002818051602081018201805184825260208301602085012081835280955050505050506000915054906101000a900460ff1681565b6060600460009054906101000a900473ffffffffffffffffffffffffffffffffffffffff1673ffffffffffffffffffffffffffffffffffffffff163373ffffffffffffffffffffffffffffffffffffffff1614612d6e576040517f08c379a0000000000000000000000000000000000000000000000000000000008152600401612d6590614e45565b60405180910390fd5b6006805480602002602001604051908101604052809291908181526020016000905b82821015612f6157838290600052602060002090600402016040518060a0016040529081600082018054612dc39061466c565b80601f0160208091040260200160405190810160405280929190818152602001828054612def9061466c565b8015612e3c5780601f10612e1157610100808354040283529160200191612e3c565b820191906000526020600020905b815481529060010190602001808311612e1f57829003601f168201915b50505050508152602001600182018054612e559061466c565b80601f0160208091040260200160405190810160405280929190818152602001828054612e819061466c565b8015612ece5780601f10612ea357610100808354040283529160200191612ece565b820191906000526020600020905b815481529060010190602001808311612eb157829003601f168201915b50505050508152602001600282015481526020016003820160009054906101000a900460ff161515151581526020016003820160019054906101000a900473ffffffffffffffffffffffffffffffffffffffff1673ffffffffffffffffffffffffffffffffffffffff1673ffffffffffffffffffffffffffffffffffffffff168152505081526020019060010190612d90565b50505050905090565b600381805160208101820180518482526020830160208501208183528095505050505050600091509050806000018054612fa39061466c565b80601f0160208091040260200160405190810160405280929190818152602001828054612fcf9061466c565b801561301c5780601f10612ff15761010080835404028352916020019161301c565b820191906000526020600020905b815481529060010190602001808311612fff57829003601f168201915b5050505050908060010180546130319061466c565b80601f016020809104026020016040519081016040528092919081815260200182805461305d9061466c565b80156130aa5780601f1061307f576101008083540402835291602001916130aa565b820191906000526020600020905b81548152906001019060200180831161308d57829003601f168201915b5050505050908060020154908060030160009054906101000a900460ff16908060030160019054906101000a900473ffffffffffffffffffffffffffffffffffffffff16905085565b6000600460009054906101000a900473ffffffffffffffffffffffffffffffffffffffff1673ffffffffffffffffffffffffffffffffffffffff163373ffffffffffffffffffffffffffffffffffffffff1614905090565b6000600460009054906101000a900473ffffffffffffffffffffffffffffffffffffffff1673ffffffffffffffffffffffffffffffffffffffff163373ffffffffffffffffffffffffffffffffffffffff16146131dd576040517f08c379a00000000000000000000000000000000000000000000000000000000081526004016131d490614eb1565b60405180910390fd5b600015156002836040516131f19190614957565b908152602001604051809103902060009054906101000a900460ff1615151461324f576040517f08c379a000000000000000000000000000000000000000000000000000000000815260040161324690614f1d565b60405180910390fd5b60016002836040516132619190614957565b908152602001604051809103902060006101000a81548160ff02191690831515021790555060005b60058054905081101561354b576000806000600584815481106132af576132ae61496e565b5b9060005260206000200160009054906101000a900473ffffffffffffffffffffffffffffffffffffffff1673ffffffffffffffffffffffffffffffffffffffff1673ffffffffffffffffffffffffffffffffffffffff1681526020019081526020016000209050600115158160040160009054906101000a900460ff161515036135375760005b816006018054905081101561353557846040516020016133569190614957565b604051602081830303815290604052805190602001208260060182815481106133825761338161496e565b5b90600052602060002090600402016000016040516020016133a39190614a20565b60405160208183030381529060405280519060200120036135225760018260060182815481106133d6576133d561496e565b5b906000526020600020906004020160030160006101000a81548160ff02191690831515021790555060016003866040516134109190614957565b908152602001604051809103902060030160006101000a81548160ff02191690831515021790555060005b60068054905081101561351557856040516020016134599190614957565b60405160208183030381529060405280519060200120600682815481106134835761348261496e565b5b90600052602060002090600402016000016040516020016134a49190614a20565b6040516020818303038152906040528051906020012003613502576001600682815481106134d5576134d461496e565b5b906000526020600020906004020160030160006101000a81548160ff021916908315150217905550613515565b808061350d90614a66565b91505061343b565b5060019350505050613551565b808061352d90614a66565b915050613336565b505b50808061354390614a66565b915050613289565b50600090505b919050565b6000806000808473ffffffffffffffffffffffffffffffffffffffff1673ffffffffffffffffffffffffffffffffffffffff1681526020019081526020016000206003015414159050919050565b60006020528060005260406000206000915090508060000180546135c79061466c565b80601f01602080910402602001604051908101604052809291908181526020018280546135f39061466c565b80156136405780601f1061361557610100808354040283529160200191613640565b820191906000526020600020905b81548152906001019060200180831161362357829003601f168201915b5050505050908060010180546136559061466c565b80601f01602080910402602001604051908101604052809291908181526020018280546136819061466c565b80156136ce5780601f106136a3576101008083540402835291602001916136ce565b820191906000526020600020905b8154815290600101906020018083116136b157829003601f168201915b5050505050908060020180546136e39061466c565b80601f016020809104026020016040519081016040528092919081815260200182805461370f9061466c565b801561375c5780601f106137315761010080835404028352916020019161375c565b820191906000526020600020905b81548152906001019060200180831161373f57829003601f168201915b5050505050908060030154908060040160009054906101000a900460ff16908060040160019054906101000a900460ff16908060040160029054906101000a900460ff16908060050180546137b09061466c565b80601f01602080910402602001604051908101604052809291908181526020018280546137dc9061466c565b80156138295780601f106137fe57610100808354040283529160200191613829565b820191906000526020600020905b81548152906001019060200180831161380c57829003601f168201915b50505050509080600701805461383e9061466c565b80601f016020809104026020016040519081016040528092919081815260200182805461386a9061466c565b80156138b75780601f1061388c576101008083540402835291602001916138b7565b820191906000526020600020905b81548152906001019060200180831161389a57829003601f168201915b5050505050905089565b600460009054906101000a900473ffffffffffffffffffffffffffffffffffffffff1681565b6040518060a00160405280606081526020016060815260200160008152602001600015158152602001600073ffffffffffffffffffffffffffffffffffffffff1681525090565b604051806101400160405280606081526020016060815260200160608152602001600081526020016000151581526020016000151581526020016000151581526020016060815260200160608152602001606081525090565b6000604051905090565b600080fd5b600080fd5b600080fd5b600080fd5b6000601f19601f8301169050919050565b7f4e487b7100000000000000000000000000000000000000000000000000000000600052604160045260246000fd5b6139ee826139a5565b810181811067ffffffffffffffff82111715613a0d57613a0c6139b6565b5b80604052505050565b6000613a20613987565b9050613a2c82826139e5565b919050565b600067ffffffffffffffff821115613a4c57613a4b6139b6565b5b613a55826139a5565b9050602081019050919050565b82818337600083830152505050565b6000613a84613a7f84613a31565b613a16565b905082815260208101848484011115613aa057613a9f6139a0565b5b613aab848285613a62565b509392505050565b600082601f830112613ac857613ac761399b565b5b8135613ad8848260208601613a71565b91505092915050565b600080600080600060a08688031215613afd57613afc613991565b5b600086013567ffffffffffffffff811115613b1b57613b1a613996565b5b613b2788828901613ab3565b955050602086013567ffffffffffffffff811115613b4857613b47613996565b5b613b5488828901613ab3565b945050604086013567ffffffffffffffff811115613b7557613b74613996565b5b613b8188828901613ab3565b935050606086013567ffffffffffffffff811115613ba257613ba1613996565b5b613bae88828901613ab3565b925050608086013567ffffffffffffffff811115613bcf57613bce613996565b5b613bdb88828901613ab3565b9150509295509295909350565b6000819050919050565b613bfb81613be8565b8114613c0657600080fd5b50565b600081359050613c1881613bf2565b92915050565b600060208284031215613c3457613c33613991565b5b6000613c4284828501613c09565b91505092915050565b600073ffffffffffffffffffffffffffffffffffffffff82169050919050565b6000613c7682613c4b565b9050919050565b613c8681613c6b565b82525050565b6000602082019050613ca16000830184613c7d565b92915050565b600060208284031215613cbd57613cbc613991565b5b600082013567ffffffffffffffff811115613cdb57613cda613996565b5b613ce784828501613ab3565b91505092915050565b60008115159050919050565b613d0581613cf0565b82525050565b600081519050919050565b600082825260208201905092915050565b60005b83811015613d45578082015181840152602081019050613d2a565b60008484015250505050565b6000613d5c82613d0b565b613d668185613d16565b9350613d76818560208601613d27565b613d7f816139a5565b840191505092915050565b613d9381613be8565b82525050565b613da281613cf0565b82525050565b613db181613c6b565b82525050565b600060a0830160008301518482036000860152613dd48282613d51565b91505060208301518482036020860152613dee8282613d51565b9150506040830151613e036040860182613d8a565b506060830151613e166060860182613d99565b506080830151613e296080860182613da8565b508091505092915050565b600081519050919050565b600082825260208201905092915050565b6000819050602082019050919050565b600060a0830160008301518482036000860152613e7d8282613d51565b91505060208301518482036020860152613e978282613d51565b9150506040830151613eac6040860182613d8a565b506060830151613ebf6060860182613d99565b506080830151613ed26080860182613da8565b508091505092915050565b6000613ee98383613e60565b905092915050565b6000602082019050919050565b6000613f0982613e34565b613f138185613e3f565b935083602082028501613f2585613e50565b8060005b85811015613f615784840389528151613f428582613edd565b9450613f4d83613ef1565b925060208a01995050600181019050613f29565b50829750879550505050505092915050565b6000610140830160008301518482036000860152613f918282613d51565b91505060208301518482036020860152613fab8282613d51565b91505060408301518482036040860152613fc58282613d51565b9150506060830151613fda6060860182613d8a565b506080830151613fed6080860182613d99565b5060a083015161400060a0860182613d99565b5060c083015161401360c0860182613d99565b5060e083015184820360e086015261402b8282613d51565b9150506101008301518482036101008601526140478282613efe565b9150506101208301518482036101208601526140638282613d51565b9150508091505092915050565b60006060820190506140856000830186613cfc565b81810360208301526140978185613db7565b905081810360408301526140ab8184613f73565b9050949350505050565b6140be81613c6b565b81146140c957600080fd5b50565b6000813590506140db816140b5565b92915050565b6000602082840312156140f7576140f6613991565b5b6000614105848285016140cc565b91505092915050565b600082825260208201905092915050565b600061412a82613e34565b614134818561410e565b93508360208202850161414685613e50565b8060005b8581101561418257848403895281516141638582613edd565b945061416e83613ef1565b925060208a0199505060018101905061414a565b50829750879550505050505092915050565b600060208201905081810360008301526141ae818461411f565b905092915050565b600060208201905081810360008301526141d08184613f73565b905092915050565b6141e181613be8565b82525050565b60006020820190506141fc60008301846141d8565b92915050565b6000806040838503121561421957614218613991565b5b600083013567ffffffffffffffff81111561423757614236613996565b5b61424385828601613ab3565b925050602083013567ffffffffffffffff81111561426457614263613996565b5b61427085828601613ab3565b9150509250929050565b600060208201905061428f6000830184613cfc565b92915050565b600081519050919050565b600082825260208201905092915050565b6000819050602082019050919050565b60006101408301600083015184820360008601526142df8282613d51565b915050602083015184820360208601526142f98282613d51565b915050604083015184820360408601526143138282613d51565b91505060608301516143286060860182613d8a565b50608083015161433b6080860182613d99565b5060a083015161434e60a0860182613d99565b5060c083015161436160c0860182613d99565b5060e083015184820360e08601526143798282613d51565b9150506101008301518482036101008601526143958282613efe565b9150506101208301518482036101208601526143b18282613d51565b9150508091505092915050565b60006143ca83836142c1565b905092915050565b6000602082019050919050565b60006143ea82614295565b6143f481856142a0565b935083602082028501614406856142b1565b8060005b85811015614442578484038952815161442385826143be565b945061442e836143d2565b925060208a0199505060018101905061440a565b50829750879550505050505092915050565b6000602082019050818103600083015261446e81846143df565b905092915050565b600082825260208201905092915050565b600061449282613d0b565b61449c8185614476565b93506144ac818560208601613d27565b6144b5816139a5565b840191505092915050565b600060a08201905081810360008301526144da8188614487565b905081810360208301526144ee8187614487565b90506144fd60408301866141d8565b61450a6060830185613cfc565b6145176080830184613c7d565b9695505050505050565b600061012082019050818103600083015261453c818c614487565b90508181036020830152614550818b614487565b90508181036040830152614564818a614487565b905061457360608301896141d8565b6145806080830188613cfc565b61458d60a0830187613cfc565b61459a60c0830186613cfc565b81810360e08301526145ac8185614487565b90508181036101008301526145c18184614487565b90509a9950505050505050505050565b7f4964656e7469747920616c7265616479206578697374732e0000000000000000600082015250565b6000614607601883614476565b9150614612826145d1565b602082019050919050565b60006020820190508181036000830152614636816145fa565b9050919050565b7f4e487b7100000000000000000000000000000000000000000000000000000000600052602260045260246000fd5b6000600282049050600182168061468457607f821691505b6020821081036146975761469661463d565b5b50919050565b60008190508160005260206000209050919050565b60006020601f8301049050919050565b600082821b905092915050565b6000600883026146ff7fffffffffffffffffffffffffffffffffffffffffffffffffffffffffffffffff826146c2565b61470986836146c2565b95508019841693508086168417925050509392505050565b6000819050919050565b600061474661474161473c84613be8565b614721565b613be8565b9050919050565b6000819050919050565b6147608361472b565b61477461476c8261474d565b8484546146cf565b825550505050565b600090565b61478961477c565b614794818484614757565b505050565b5b818110156147b8576147ad600082614781565b60018101905061479a565b5050565b601f8211156147fd576147ce8161469d565b6147d7846146b2565b810160208510156147e6578190505b6147fa6147f2856146b2565b830182614799565b50505b505050565b600082821c905092915050565b600061482060001984600802614802565b1980831691505092915050565b6000614839838361480f565b9150826002028217905092915050565b61485282613d0b565b67ffffffffffffffff81111561486b5761486a6139b6565b5b614875825461466c565b6148808282856147bc565b600060209050601f8311600181146148b357600084156148a1578287015190505b6148ab858261482d565b865550614913565b601f1984166148c18661469d565b60005b828110156148e9578489015182556001820191506020850194506020810190506148c4565b868310156149065784890151614902601f89168261480f565b8355505b6001600288020188555050505b505050505050565b600081905092915050565b600061493182613d0b565b61493b818561491b565b935061494b818560208601613d27565b80840191505092915050565b60006149638284614926565b915081905092915050565b7f4e487b7100000000000000000000000000000000000000000000000000000000600052603260045260246000fd5b600081546149aa8161466c565b6149b4818661491b565b945060018216600081146149cf57600181146149e457614a17565b60ff1983168652811515820286019350614a17565b6149ed8561469d565b60005b83811015614a0f578154818901526001820191506020810190506149f0565b838801955050505b50505092915050565b6000614a2c828461499d565b915081905092915050565b7f4e487b7100000000000000000000000000000000000000000000000000000000600052601160045260246000fd5b6000614a7182613be8565b91507fffffffffffffffffffffffffffffffffffffffffffffffffffffffffffffffff8203614aa357614aa2614a37565b5b600182019050919050565b7f4964656e74697479206e6f742076657269666965642e00000000000000000000600082015250565b6000614ae4601683614476565b9150614aef82614aae565b602082019050919050565b60006020820190508181036000830152614b1381614ad7565b9050919050565b6000614b2582613be8565b9150614b3083613be8565b9250828201905080821115614b4857614b47614a37565b5b92915050565b7f4f6e6c792061646d696e2063616e2072656a656374206964656e746974792e00600082015250565b6000614b84601f83614476565b9150614b8f82614b4e565b602082019050919050565b60006020820190508181036000830152614bb381614b77565b9050919050565b6000614bc582613be8565b9150614bd083613be8565b9250828203905081811115614be857614be7614a37565b5b92915050565b7f4e487b7100000000000000000000000000000000000000000000000000000000600052603160045260246000fd5b7f4f6e6c792061646d696e2063616e2076657269667920676f7665726e6d656e7460008201527f2063657274696669636174652e00000000000000000000000000000000000000602082015250565b6000614c79602d83614476565b9150614c8482614c1d565b604082019050919050565b60006020820190508181036000830152614ca881614c6c565b9050919050565b7f476f7665726e6d656e7420636572746966696361746520616c7265616479207660008201527f657269666965642e000000000000000000000000000000000000000000000000602082015250565b6000614d0b602883614476565b9150614d1682614caf565b604082019050919050565b60006020820190508181036000830152614d3a81614cfe565b9050919050565b7f4f6e6c792061646d696e2063616e207669657720616c6c206964656e7469746960008201527f65732e0000000000000000000000000000000000000000000000000000000000602082015250565b6000614d9d602383614476565b9150614da882614d41565b604082019050919050565b60006020820190508181036000830152614dcc81614d90565b9050919050565b7f4f6e6c792061646d696e2063616e207669657720756e7665726966696564206460008201527f6f63756d656e74732e0000000000000000000000000000000000000000000000602082015250565b6000614e2f602983614476565b9150614e3a82614dd3565b604082019050919050565b60006020820190508181036000830152614e5e81614e22565b9050919050565b7f4f6e6c792061646d696e2063616e2076657269667920646f63756d656e742e00600082015250565b6000614e9b601f83614476565b9150614ea682614e65565b602082019050919050565b60006020820190508181036000830152614eca81614e8e565b9050919050565b7f446f63756d656e7420616c72656164792076657269666965642e000000000000600082015250565b6000614f07601a83614476565b9150614f1282614ed1565b602082019050919050565b60006020820190508181036000830152614f3681614efa565b905091905056fea2646970667358221220bae80137ea81569919d074c8fc7843b34b60237111c7b594b422bbe4ff46cb5c64736f6c63430008120033",
  "immutableReferences": {},
  "source": "pragma solidity ^0.8.0;\r\n\r\ncontract IdentityManagement {\r\n    struct Identity {\r\n        string name;\r\n        string email;\r\n        string phoneNumber;\r\n        uint256 createdAt;\r\n        bool verified;\r\n        bool hasGovCertificate;\r\n        bool govCertificateVerified;\r\n        string govCertificateCID;\r\n        Document[] AllDocuments;\r\n        string physicalAddress;\r\n    }\r\n\r\n    struct Document {\r\n        string documentCID;\r\n        string documentName;\r\n        uint256 validityUpTo;\r\n        bool verified;\r\n        address identityAddress;\r\n    }\r\n\r\n    mapping(address => Identity) public identities;\r\n    mapping(string => bool) public verifiedCertificates;\r\n    mapping(string => bool) public verifiedDocuments;\r\n    mapping(string => Document) public documents;\r\n\r\n    address public admin;\r\n    address[] public identityAddresses;\r\n    Document[] public allDocumentsforAdmin;\r\n\r\n    constructor() {\r\n        admin = msg.sender;\r\n        Identity storage newIdentity = identities[msg.sender];\r\n        newIdentity.name = \"Admin\";\r\n        newIdentity.email = \"admin@gmail.com\";\r\n        newIdentity.phoneNumber = \"1234567890\";\r\n        newIdentity.physicalAddress = \"Admin Address\";\r\n        newIdentity.createdAt = block.timestamp;\r\n        newIdentity.verified = true;\r\n        newIdentity.hasGovCertificate = true;\r\n        newIdentity.govCertificateVerified = true;\r\n        newIdentity.govCertificateCID = \"\";\r\n        identityAddresses.push(msg.sender);\r\n    }\r\n\r\n    function createIdentity(\r\n        string memory name,\r\n        string memory email,\r\n        string memory phoneNumber,\r\n        string memory physicalAddress,\r\n        string memory govCertificateCID\r\n    ) public {\r\n        require(\r\n            identities[msg.sender].createdAt == 0,\r\n            \"Identity already exists.\"\r\n        );\r\n        Identity storage newIdentity = identities[msg.sender];\r\n        newIdentity.name = name;\r\n        newIdentity.email = email;\r\n        newIdentity.phoneNumber = phoneNumber;\r\n        newIdentity.physicalAddress = physicalAddress;\r\n        newIdentity.createdAt = block.timestamp;\r\n        newIdentity.verified = false;\r\n        newIdentity.hasGovCertificate = false;\r\n        newIdentity.govCertificateVerified = false;\r\n        newIdentity.govCertificateCID = govCertificateCID;\r\n        identityAddresses.push(msg.sender);\r\n\r\n        if (keccak256(abi.encodePacked(govCertificateCID)) != keccak256(\"\")) {\r\n            newIdentity.hasGovCertificate = true;\r\n        }\r\n\r\n        if (verifiedCertificates[govCertificateCID] == true) {\r\n            newIdentity.govCertificateVerified = true;\r\n            newIdentity.verified = true;\r\n        }\r\n\r\n        for (uint256 i = 0; i < identityAddresses.length; i++) {\r\n            Identity storage identity = identities[identityAddresses[i]];\r\n            if (identity.verified == true) {\r\n                for (uint256 j = 0; j < identity.AllDocuments.length; j++) {\r\n                    if (\r\n                        keccak256(\r\n                            abi.encodePacked(\r\n                                identity.AllDocuments[j].documentCID\r\n                            )\r\n                        ) == keccak256(abi.encodePacked(govCertificateCID))\r\n                    ) {\r\n                        newIdentity.govCertificateVerified = true;\r\n                        newIdentity.verified = true;\r\n                        break;\r\n                    }\r\n                }\r\n            }\r\n        }\r\n\r\n        for (uint256 i = 0; i < identityAddresses.length; i++) {\r\n            Identity storage identity = identities[identityAddresses[i]];\r\n            if (identity.verified == true) {\r\n                for (uint256 j = 0; j < identity.AllDocuments.length; j++) {\r\n                    if (\r\n                        keccak256(\r\n                            abi.encodePacked(\r\n                                identity.AllDocuments[j].documentCID\r\n                            )\r\n                        ) == keccak256(abi.encodePacked(govCertificateCID))\r\n                    ) {\r\n                        identity.AllDocuments[j].verified = true;\r\n                        break;\r\n                    }\r\n                }\r\n            }\r\n        }\r\n\r\n        if (verifiedCertificates[govCertificateCID] == true) {\r\n            newIdentity.govCertificateVerified = true;\r\n            newIdentity.verified = true;\r\n        }\r\n    }\r\n\r\n    function verifyGovCertificate(string memory govCertificateCID) public {\r\n        require(\r\n            msg.sender == admin,\r\n            \"Only admin can verify government certificate.\"\r\n        );\r\n        require(\r\n            verifiedCertificates[govCertificateCID] == false,\r\n            \"Government certificate already verified.\"\r\n        );\r\n        verifiedCertificates[govCertificateCID] = true;\r\n        for (uint256 i = 0; i < identityAddresses.length; i++) {\r\n            Identity storage identity = identities[identityAddresses[i]];\r\n            if (\r\n                keccak256(abi.encodePacked(identity.govCertificateCID)) ==\r\n                keccak256(abi.encodePacked(govCertificateCID))\r\n            ) {\r\n                identity.govCertificateVerified = true;\r\n                identity.verified = true;\r\n                break;\r\n            }\r\n        }\r\n    }\r\n\r\n    function rejectUser(address identityAddress) public {\r\n        require(msg.sender == admin, \"Only admin can reject identity.\");\r\n        for (uint256 i = 0; i < identityAddresses.length; i++) {\r\n            if (identityAddresses[i] == identityAddress) {\r\n                identityAddresses[i] = identityAddresses[\r\n                    identityAddresses.length - 1\r\n                ];\r\n                identityAddresses.pop();\r\n                break;\r\n            }\r\n        }\r\n    }\r\n\r\n    function uploadDocument(\r\n        string memory documentCID,\r\n        string memory documentName\r\n    ) public {\r\n        Identity storage identity = identities[msg.sender];\r\n        require(\r\n            identity.verified == true &&\r\n                identity.govCertificateVerified == true,\r\n            \"Identity not verified.\"\r\n        );\r\n        Document memory newDocument;\r\n        newDocument.documentCID = documentCID;\r\n        newDocument.documentName = documentName;\r\n        newDocument.validityUpTo = block.timestamp + 31536000;\r\n        newDocument.verified = false;\r\n        newDocument.identityAddress = msg.sender;\r\n        identity.AllDocuments.push(newDocument);\r\n\r\n        verifiedDocuments[documentCID] = false;\r\n\r\n        documents[documentCID] = newDocument;\r\n        allDocumentsforAdmin.push(newDocument);\r\n    }\r\n\r\n    function verifyDocument(string memory documentCID) public returns (bool) {\r\n        require(msg.sender == admin, \"Only admin can verify document.\");\r\n        require(\r\n            verifiedDocuments[documentCID] == false,\r\n            \"Document already verified.\"\r\n        );\r\n        verifiedDocuments[documentCID] = true;\r\n        for (uint256 i = 0; i < identityAddresses.length; i++) {\r\n            Identity storage identity = identities[identityAddresses[i]];\r\n            if (identity.verified == true) {\r\n                for (uint256 j = 0; j < identity.AllDocuments.length; j++) {\r\n                    if (\r\n                        keccak256(\r\n                            abi.encodePacked(\r\n                                identity.AllDocuments[j].documentCID\r\n                            )\r\n                        ) == keccak256(abi.encodePacked(documentCID))\r\n                    ) {\r\n                        identity.AllDocuments[j].verified = true;\r\n\r\n                        documents[documentCID].verified = true;\r\n\r\n                        for (\r\n                            uint256 k = 0;\r\n                            k < allDocumentsforAdmin.length;\r\n                            k++\r\n                        ) {\r\n                            if (\r\n                                keccak256(\r\n                                    abi.encodePacked(\r\n                                        allDocumentsforAdmin[k].documentCID\r\n                                    )\r\n                                ) == keccak256(abi.encodePacked(documentCID))\r\n                            ) {\r\n                                allDocumentsforAdmin[k].verified = true;\r\n                                break;\r\n                            }\r\n                        }\r\n                        return true;\r\n                    }\r\n                }\r\n            }\r\n        }\r\n        return false;\r\n    }\r\n\r\n    function getDocumentCount() public view returns (uint256) {\r\n        Identity storage identity = identities[msg.sender];\r\n        require(identity.verified == true, \"Identity not verified.\");\r\n        return identity.AllDocuments.length;\r\n    }\r\n\r\n    function getDocuments(address identityAddress)\r\n        public\r\n        view\r\n        returns (Document[] memory)\r\n    {\r\n        Identity storage identity = identities[identityAddress];\r\n        require(identity.verified == true, \"Identity not verified.\");\r\n        return identity.AllDocuments;\r\n    }\r\n\r\n    function getAllDocument() public view returns (Document[] memory) {\r\n        require(\r\n            msg.sender == admin,\r\n            \"Only admin can view unverified documents.\"\r\n        );\r\n        return allDocumentsforAdmin;\r\n    }\r\n\r\n    function getIdentity(address identityAddress)\r\n        public\r\n        view\r\n        returns (Identity memory)\r\n    {\r\n        return identities[identityAddress];\r\n    }\r\n\r\n    function getIdentities() public view returns (Identity[] memory) {\r\n        require(msg.sender == admin, \"Only admin can view all identities.\");\r\n        Identity[] memory allIdentities = new Identity[](\r\n            identityAddresses.length\r\n        );\r\n\r\n        for (uint256 i = 0; i < identityAddresses.length; i++) {\r\n            allIdentities[i] = identities[identityAddresses[i]];\r\n        }\r\n\r\n        return allIdentities;\r\n    }\r\n\r\n    //check if the address is registered\r\n    function isRegistered(address identityAddress) public view returns (bool) {\r\n        return identities[identityAddress].createdAt != 0;\r\n    }\r\n\r\n    function isAdmin() public view returns (bool) {\r\n        return msg.sender == admin;\r\n    }\r\n\r\n    function isVerified(string memory documentCID)\r\n        public\r\n        view\r\n        returns (\r\n            bool,\r\n            Document memory,\r\n            Identity memory\r\n        )\r\n    {\r\n        Document memory document = documents[documentCID];\r\n        Identity memory identity = identities[document.identityAddress];\r\n        if (identity.verified == true && document.verified == true) {\r\n            return (true, document, identity);\r\n        } else {\r\n            return (false, document, identity);\r\n        }\r\n    }\r\n}\r\n",
  "sourcePath": "D:\\Blockchain\\testing\\contracts\\IdentityManagement.sol",
  "compiler": {
    "name": "solc",
    "version": "0.8.18+commit.87f61d96.Emscripten.clang"
  },
  "schemaVersion": "3.4.11",
  "updatedAt": "2023-04-10T04:53:41.874Z",
  "networkType": "ethereum",
  "devdoc": {
    "kind": "dev",
    "methods": {},
    "version": 1
  },
  "userdoc": {
    "kind": "user",
    "methods": {},
    "version": 1
  }
}