{
  "contractName": "IdentityManagement",
  "abi": [
    {
      "inputs": [],
      "stateMutability": "nonpayable",
      "type": "constructor"
    },
    {
      "inputs": [],
      "name": "admin",
      "outputs": [
        {
          "internalType": "address",
          "name": "",
          "type": "address"
        }
      ],
      "stateMutability": "view",
      "type": "function",
      "constant": true
    },
    {
      "inputs": [
        {
          "internalType": "uint256",
          "name": "",
          "type": "uint256"
        }
      ],
      "name": "allDocumentsforAdmin",
      "outputs": [
        {
          "internalType": "string",
          "name": "documentCID",
          "type": "string"
        },
        {
          "internalType": "string",
          "name": "documentName",
          "type": "string"
        },
        {
          "internalType": "uint256",
          "name": "validityUpTo",
          "type": "uint256"
        },
        {
          "internalType": "bool",
          "name": "verified",
          "type": "bool"
        },
        {
          "internalType": "address",
          "name": "identityAddress",
          "type": "address"
        }
      ],
      "stateMutability": "view",
      "type": "function",
      "constant": true
    },
    {
      "inputs": [
        {
          "internalType": "string",
          "name": "",
          "type": "string"
        }
      ],
      "name": "documents",
      "outputs": [
        {
          "internalType": "string",
          "name": "documentCID",
          "type": "string"
        },
        {
          "internalType": "string",
          "name": "documentName",
          "type": "string"
        },
        {
          "internalType": "uint256",
          "name": "validityUpTo",
          "type": "uint256"
        },
        {
          "internalType": "bool",
          "name": "verified",
          "type": "bool"
        },
        {
          "internalType": "address",
          "name": "identityAddress",
          "type": "address"
        }
      ],
      "stateMutability": "view",
      "type": "function",
      "constant": true
    },
    {
      "inputs": [
        {
          "internalType": "address",
          "name": "",
          "type": "address"
        }
      ],
      "name": "identities",
      "outputs": [
        {
          "internalType": "string",
          "name": "name",
          "type": "string"
        },
        {
          "internalType": "string",
          "name": "email",
          "type": "string"
        },
        {
          "internalType": "string",
          "name": "phoneNumber",
          "type": "string"
        },
        {
          "internalType": "uint256",
          "name": "createdAt",
          "type": "uint256"
        },
        {
          "internalType": "bool",
          "name": "verified",
          "type": "bool"
        },
        {
          "internalType": "bool",
          "name": "hasGovCertificate",
          "type": "bool"
        },
        {
          "internalType": "bool",
          "name": "govCertificateVerified",
          "type": "bool"
        },
        {
          "internalType": "string",
          "name": "govCertificateCID",
          "type": "string"
        },
        {
          "internalType": "string",
          "name": "currentPicCID",
          "type": "string"
        },
        {
          "internalType": "string",
          "name": "physicalAddress",
          "type": "string"
        }
      ],
      "stateMutability": "view",
      "type": "function",
      "constant": true
    },
    {
      "inputs": [
        {
          "internalType": "uint256",
          "name": "",
          "type": "uint256"
        }
      ],
      "name": "identityAddresses",
      "outputs": [
        {
          "internalType": "address",
          "name": "",
          "type": "address"
        }
      ],
      "stateMutability": "view",
      "type": "function",
      "constant": true
    },
    {
      "inputs": [
        {
          "internalType": "string",
          "name": "",
          "type": "string"
        }
      ],
      "name": "verifiedCertificates",
      "outputs": [
        {
          "internalType": "bool",
          "name": "",
          "type": "bool"
        }
      ],
      "stateMutability": "view",
      "type": "function",
      "constant": true
    },
    {
      "inputs": [
        {
          "internalType": "string",
          "name": "",
          "type": "string"
        }
      ],
      "name": "verifiedDocuments",
      "outputs": [
        {
          "internalType": "bool",
          "name": "",
          "type": "bool"
        }
      ],
      "stateMutability": "view",
      "type": "function",
      "constant": true
    },
    {
      "inputs": [
        {
          "internalType": "string",
          "name": "name",
          "type": "string"
        },
        {
          "internalType": "string",
          "name": "email",
          "type": "string"
        },
        {
          "internalType": "string",
          "name": "phoneNumber",
          "type": "string"
        },
        {
          "internalType": "string",
          "name": "physicalAddress",
          "type": "string"
        },
        {
          "internalType": "string",
          "name": "govCertificateCID",
          "type": "string"
        },
        {
          "internalType": "string",
          "name": "currentPicCID",
          "type": "string"
        },
        {
          "internalType": "bool",
          "name": "verified",
          "type": "bool"
        }
      ],
      "name": "createIdentity",
      "outputs": [],
      "stateMutability": "nonpayable",
      "type": "function"
    },
    {
      "inputs": [
        {
          "internalType": "string",
          "name": "govCertificateCID",
          "type": "string"
        }
      ],
      "name": "verifyGovCertificate",
      "outputs": [],
      "stateMutability": "nonpayable",
      "type": "function"
    },
    {
      "inputs": [
        {
          "internalType": "address",
          "name": "identityAddress",
          "type": "address"
        }
      ],
      "name": "rejectUser",
      "outputs": [],
      "stateMutability": "nonpayable",
      "type": "function"
    },
    {
      "inputs": [
        {
          "internalType": "string",
          "name": "documentCID",
          "type": "string"
        },
        {
          "internalType": "string",
          "name": "documentName",
          "type": "string"
        }
      ],
      "name": "uploadDocument",
      "outputs": [],
      "stateMutability": "nonpayable",
      "type": "function"
    },
    {
      "inputs": [
        {
          "internalType": "string",
          "name": "documentCID",
          "type": "string"
        }
      ],
      "name": "verifyDocument",
      "outputs": [
        {
          "internalType": "bool",
          "name": "",
          "type": "bool"
        }
      ],
      "stateMutability": "nonpayable",
      "type": "function"
    },
    {
      "inputs": [],
      "name": "getDocumentCount",
      "outputs": [
        {
          "internalType": "uint256",
          "name": "",
          "type": "uint256"
        }
      ],
      "stateMutability": "view",
      "type": "function",
      "constant": true
    },
    {
      "inputs": [
        {
          "internalType": "address",
          "name": "identityAddress",
          "type": "address"
        }
      ],
      "name": "getDocuments",
      "outputs": [
        {
          "components": [
            {
              "internalType": "string",
              "name": "documentCID",
              "type": "string"
            },
            {
              "internalType": "string",
              "name": "documentName",
              "type": "string"
            },
            {
              "internalType": "uint256",
              "name": "validityUpTo",
              "type": "uint256"
            },
            {
              "internalType": "bool",
              "name": "verified",
              "type": "bool"
            },
            {
              "internalType": "address",
              "name": "identityAddress",
              "type": "address"
            }
          ],
          "internalType": "struct IdentityManagement.Document[]",
          "name": "",
          "type": "tuple[]"
        }
      ],
      "stateMutability": "view",
      "type": "function",
      "constant": true
    },
    {
      "inputs": [],
      "name": "getAllDocument",
      "outputs": [
        {
          "components": [
            {
              "internalType": "string",
              "name": "documentCID",
              "type": "string"
            },
            {
              "internalType": "string",
              "name": "documentName",
              "type": "string"
            },
            {
              "internalType": "uint256",
              "name": "validityUpTo",
              "type": "uint256"
            },
            {
              "internalType": "bool",
              "name": "verified",
              "type": "bool"
            },
            {
              "internalType": "address",
              "name": "identityAddress",
              "type": "address"
            }
          ],
          "internalType": "struct IdentityManagement.Document[]",
          "name": "",
          "type": "tuple[]"
        }
      ],
      "stateMutability": "view",
      "type": "function",
      "constant": true
    },
    {
      "inputs": [
        {
          "internalType": "address",
          "name": "identityAddress",
          "type": "address"
        }
      ],
      "name": "getIdentity",
      "outputs": [
        {
          "components": [
            {
              "internalType": "string",
              "name": "name",
              "type": "string"
            },
            {
              "internalType": "string",
              "name": "email",
              "type": "string"
            },
            {
              "internalType": "string",
              "name": "phoneNumber",
              "type": "string"
            },
            {
              "internalType": "uint256",
              "name": "createdAt",
              "type": "uint256"
            },
            {
              "internalType": "bool",
              "name": "verified",
              "type": "bool"
            },
            {
              "internalType": "bool",
              "name": "hasGovCertificate",
              "type": "bool"
            },
            {
              "internalType": "bool",
              "name": "govCertificateVerified",
              "type": "bool"
            },
            {
              "internalType": "string",
              "name": "govCertificateCID",
              "type": "string"
            },
            {
              "internalType": "string",
              "name": "currentPicCID",
              "type": "string"
            },
            {
              "components": [
                {
                  "internalType": "string",
                  "name": "documentCID",
                  "type": "string"
                },
                {
                  "internalType": "string",
                  "name": "documentName",
                  "type": "string"
                },
                {
                  "internalType": "uint256",
                  "name": "validityUpTo",
                  "type": "uint256"
                },
                {
                  "internalType": "bool",
                  "name": "verified",
                  "type": "bool"
                },
                {
                  "internalType": "address",
                  "name": "identityAddress",
                  "type": "address"
                }
              ],
              "internalType": "struct IdentityManagement.Document[]",
              "name": "AllDocuments",
              "type": "tuple[]"
            },
            {
              "internalType": "string",
              "name": "physicalAddress",
              "type": "string"
            }
          ],
          "internalType": "struct IdentityManagement.Identity",
          "name": "",
          "type": "tuple"
        }
      ],
      "stateMutability": "view",
      "type": "function",
      "constant": true
    },
    {
      "inputs": [],
      "name": "getIdentities",
      "outputs": [
        {
          "components": [
            {
              "internalType": "string",
              "name": "name",
              "type": "string"
            },
            {
              "internalType": "string",
              "name": "email",
              "type": "string"
            },
            {
              "internalType": "string",
              "name": "phoneNumber",
              "type": "string"
            },
            {
              "internalType": "uint256",
              "name": "createdAt",
              "type": "uint256"
            },
            {
              "internalType": "bool",
              "name": "verified",
              "type": "bool"
            },
            {
              "internalType": "bool",
              "name": "hasGovCertificate",
              "type": "bool"
            },
            {
              "internalType": "bool",
              "name": "govCertificateVerified",
              "type": "bool"
            },
            {
              "internalType": "string",
              "name": "govCertificateCID",
              "type": "string"
            },
            {
              "internalType": "string",
              "name": "currentPicCID",
              "type": "string"
            },
            {
              "components": [
                {
                  "internalType": "string",
                  "name": "documentCID",
                  "type": "string"
                },
                {
                  "internalType": "string",
                  "name": "documentName",
                  "type": "string"
                },
                {
                  "internalType": "uint256",
                  "name": "validityUpTo",
                  "type": "uint256"
                },
                {
                  "internalType": "bool",
                  "name": "verified",
                  "type": "bool"
                },
                {
                  "internalType": "address",
                  "name": "identityAddress",
                  "type": "address"
                }
              ],
              "internalType": "struct IdentityManagement.Document[]",
              "name": "AllDocuments",
              "type": "tuple[]"
            },
            {
              "internalType": "string",
              "name": "physicalAddress",
              "type": "string"
            }
          ],
          "internalType": "struct IdentityManagement.Identity[]",
          "name": "",
          "type": "tuple[]"
        }
      ],
      "stateMutability": "view",
      "type": "function",
      "constant": true
    },
    {
      "inputs": [
        {
          "internalType": "address",
          "name": "identityAddress",
          "type": "address"
        }
      ],
      "name": "isRegistered",
      "outputs": [
        {
          "internalType": "bool",
          "name": "",
          "type": "bool"
        }
      ],
      "stateMutability": "view",
      "type": "function",
      "constant": true
    },
    {
      "inputs": [],
      "name": "isAdmin",
      "outputs": [
        {
          "internalType": "bool",
          "name": "",
          "type": "bool"
        }
      ],
      "stateMutability": "view",
      "type": "function",
      "constant": true
    },
    {
      "inputs": [
        {
          "internalType": "string",
          "name": "documentCID",
          "type": "string"
        }
      ],
      "name": "isVerified",
      "outputs": [
        {
          "internalType": "bool",
          "name": "",
          "type": "bool"
        },
        {
          "components": [
            {
              "internalType": "string",
              "name": "documentCID",
              "type": "string"
            },
            {
              "internalType": "string",
              "name": "documentName",
              "type": "string"
            },
            {
              "internalType": "uint256",
              "name": "validityUpTo",
              "type": "uint256"
            },
            {
              "internalType": "bool",
              "name": "verified",
              "type": "bool"
            },
            {
              "internalType": "address",
              "name": "identityAddress",
              "type": "address"
            }
          ],
          "internalType": "struct IdentityManagement.Document",
          "name": "",
          "type": "tuple"
        },
        {
          "components": [
            {
              "internalType": "string",
              "name": "name",
              "type": "string"
            },
            {
              "internalType": "string",
              "name": "email",
              "type": "string"
            },
            {
              "internalType": "string",
              "name": "phoneNumber",
              "type": "string"
            },
            {
              "internalType": "uint256",
              "name": "createdAt",
              "type": "uint256"
            },
            {
              "internalType": "bool",
              "name": "verified",
              "type": "bool"
            },
            {
              "internalType": "bool",
              "name": "hasGovCertificate",
              "type": "bool"
            },
            {
              "internalType": "bool",
              "name": "govCertificateVerified",
              "type": "bool"
            },
            {
              "internalType": "string",
              "name": "govCertificateCID",
              "type": "string"
            },
            {
              "internalType": "string",
              "name": "currentPicCID",
              "type": "string"
            },
            {
              "components": [
                {
                  "internalType": "string",
                  "name": "documentCID",
                  "type": "string"
                },
                {
                  "internalType": "string",
                  "name": "documentName",
                  "type": "string"
                },
                {
                  "internalType": "uint256",
                  "name": "validityUpTo",
                  "type": "uint256"
                },
                {
                  "internalType": "bool",
                  "name": "verified",
                  "type": "bool"
                },
                {
                  "internalType": "address",
                  "name": "identityAddress",
                  "type": "address"
                }
              ],
              "internalType": "struct IdentityManagement.Document[]",
              "name": "AllDocuments",
              "type": "tuple[]"
            },
            {
              "internalType": "string",
              "name": "physicalAddress",
              "type": "string"
            }
          ],
          "internalType": "struct IdentityManagement.Identity",
          "name": "",
          "type": "tuple"
        }
      ],
      "stateMutability": "view",
      "type": "function",
      "constant": true
    }
  ],
  "bytecode": "0x60806040523480156200001157600080fd5b5033600460006101000a81548173ffffffffffffffffffffffffffffffffffffffff021916908373ffffffffffffffffffffffffffffffffffffffff16021790555060008060003373ffffffffffffffffffffffffffffffffffffffff1673ffffffffffffffffffffffffffffffffffffffff16815260200190815260200160002090506040518060400160405280600581526020017f41646d696e000000000000000000000000000000000000000000000000000000815250816000019081620000dd919062000543565b506040518060400160405280600f81526020017f61646d696e40676d61696c2e636f6d000000000000000000000000000000000081525081600101908162000126919062000543565b506040518060400160405280600a81526020017f31323334353637383930000000000000000000000000000000000000000000008152508160020190816200016f919062000543565b506040518060400160405280600d81526020017f41646d696e204164647265737300000000000000000000000000000000000000815250816008019081620001b8919062000543565b5042816003018190555060018160040160006101000a81548160ff02191690831515021790555060018160040160016101000a81548160ff02191690831515021790555060018160040160026101000a81548160ff021916908315150217905550604051806020016040528060008152508160050190816200023b919062000543565b50604051806020016040528060008152508160060190816200025e919062000543565b506005339080600181540180825580915050600190039060005260206000200160009091909190916101000a81548173ffffffffffffffffffffffffffffffffffffffff021916908373ffffffffffffffffffffffffffffffffffffffff160217905550506200062a565b600081519050919050565b7f4e487b7100000000000000000000000000000000000000000000000000000000600052604160045260246000fd5b7f4e487b7100000000000000000000000000000000000000000000000000000000600052602260045260246000fd5b600060028204905060018216806200034b57607f821691505b60208210810362000361576200036062000303565b5b50919050565b60008190508160005260206000209050919050565b60006020601f8301049050919050565b600082821b905092915050565b600060088302620003cb7fffffffffffffffffffffffffffffffffffffffffffffffffffffffffffffffff826200038c565b620003d786836200038c565b95508019841693508086168417925050509392505050565b6000819050919050565b6000819050919050565b6000620004246200041e6200041884620003ef565b620003f9565b620003ef565b9050919050565b6000819050919050565b620004408362000403565b620004586200044f826200042b565b84845462000399565b825550505050565b600090565b6200046f62000460565b6200047c81848462000435565b505050565b5b81811015620004a4576200049860008262000465565b60018101905062000482565b5050565b601f821115620004f357620004bd8162000367565b620004c8846200037c565b81016020851015620004d8578190505b620004f0620004e7856200037c565b83018262000481565b50505b505050565b600082821c905092915050565b60006200051860001984600802620004f8565b1980831691505092915050565b600062000533838362000505565b9150826002028217905092915050565b6200054e82620002c9565b67ffffffffffffffff8111156200056a5762000569620002d4565b5b62000576825462000332565b62000583828285620004a8565b600060209050601f831160018114620005bb5760008415620005a6578287015190505b620005b2858262000525565b86555062000622565b601f198416620005cb8662000367565b60005b82811015620005f557848901518255600182019150602085019450602081019050620005ce565b8683101562000615578489015162000611601f89168262000505565b8355505b6001600288020188555050505b505050505050565b61528f806200063a6000396000f3fe608060405234801561001057600080fd5b506004361061012c5760003560e01c80637775495a116100ad578063b6db75a011610071578063b6db75a014610385578063beee5eb7146103a3578063c3c5a547146103d3578063f653b81e14610403578063f851a4401461043c5761012c565b80637775495a146102b1578063916293d1146102cf578063aa4513c414610303578063af045d6c14610333578063b3dd697b146103515761012c565b80633dbcd0a6116100f45780633dbcd0a6146102115780634464fe331461022d5780634dc92885146102495780635c6ee7bf146102655780636ecc0cb4146102955761012c565b80632178c92414610131578063234c76d51461016157806327f50a2d146101935780632fea7b81146101c35780633d1c2273146101f3575b600080fd5b61014b60048036038101906101469190613c30565b61045a565b6040516101589190613c9e565b60405180910390f35b61017b60048036038101906101769190613dff565b610499565b60405161018a939291906141e4565b60405180910390f35b6101ad60048036038101906101a89190614255565b610cd8565b6040516101ba9190614308565b60405180910390f35b6101dd60048036038101906101d89190614255565b610f75565b6040516101ea919061432a565b60405180910390f35b6101fb611593565b604051610208919061435b565b60405180910390f35b61022b600480360381019061022691906143a2565b61163c565b005b610247600480360381019061024291906144ec565b611cd1565b005b610263600480360381019061025e9190614255565b61209c565b005b61027f600480360381019061027a9190613dff565b6122bc565b60405161028c9190614564565b60405180910390f35b6102af60048036038101906102aa9190613dff565b6122f2565b005b6102b9612568565b6040516102c6919061475a565b60405180910390f35b6102e960048036038101906102e49190613c30565b612ced565b6040516102fa9594939291906147c6565b60405180910390f35b61031d60048036038101906103189190613dff565b612e70565b60405161032a9190614564565b60405180910390f35b61033b612ea6565b6040516103489190614308565b60405180910390f35b61036b60048036038101906103669190613dff565b613134565b60405161037c9594939291906147c6565b60405180910390f35b61038d6132bd565b60405161039a9190614564565b60405180910390f35b6103bd60048036038101906103b89190613dff565b613315565b6040516103ca9190614564565b60405180910390f35b6103ed60048036038101906103e89190614255565b613720565b6040516103fa9190614564565b60405180910390f35b61041d60048036038101906104189190614255565b61376e565b6040516104339a99989796959493929190614827565b60405180910390f35b610444613b19565b6040516104519190613c9e565b60405180910390f35b6005818154811061046a57600080fd5b906000526020600020016000915054906101000a900473ffffffffffffffffffffffffffffffffffffffff1681565b60006104a3613b3f565b6104ab613b86565b60006003856040516104bd9190614929565b90815260200160405180910390206040518060a00160405290816000820180546104e69061496f565b80601f01602080910402602001604051908101604052809291908181526020018280546105129061496f565b801561055f5780601f106105345761010080835404028352916020019161055f565b820191906000526020600020905b81548152906001019060200180831161054257829003601f168201915b505050505081526020016001820180546105789061496f565b80601f01602080910402602001604051908101604052809291908181526020018280546105a49061496f565b80156105f15780601f106105c6576101008083540402835291602001916105f1565b820191906000526020600020905b8154815290600101906020018083116105d457829003601f168201915b50505050508152602001600282015481526020016003820160009054906101000a900460ff161515151581526020016003820160019054906101000a900473ffffffffffffffffffffffffffffffffffffffff1673ffffffffffffffffffffffffffffffffffffffff1673ffffffffffffffffffffffffffffffffffffffff168152505090506000806000836080015173ffffffffffffffffffffffffffffffffffffffff1673ffffffffffffffffffffffffffffffffffffffff168152602001908152602001600020604051806101600160405290816000820180546106d79061496f565b80601f01602080910402602001604051908101604052809291908181526020018280546107039061496f565b80156107505780601f1061072557610100808354040283529160200191610750565b820191906000526020600020905b81548152906001019060200180831161073357829003601f168201915b505050505081526020016001820180546107699061496f565b80601f01602080910402602001604051908101604052809291908181526020018280546107959061496f565b80156107e25780601f106107b7576101008083540402835291602001916107e2565b820191906000526020600020905b8154815290600101906020018083116107c557829003601f168201915b505050505081526020016002820180546107fb9061496f565b80601f01602080910402602001604051908101604052809291908181526020018280546108279061496f565b80156108745780601f1061084957610100808354040283529160200191610874565b820191906000526020600020905b81548152906001019060200180831161085757829003601f168201915b50505050508152602001600382015481526020016004820160009054906101000a900460ff161515151581526020016004820160019054906101000a900460ff161515151581526020016004820160029054906101000a900460ff161515151581526020016005820180546108e89061496f565b80601f01602080910402602001604051908101604052809291908181526020018280546109149061496f565b80156109615780601f1061093657610100808354040283529160200191610961565b820191906000526020600020905b81548152906001019060200180831161094457829003601f168201915b5050505050815260200160068201805461097a9061496f565b80601f01602080910402602001604051908101604052809291908181526020018280546109a69061496f565b80156109f35780601f106109c8576101008083540402835291602001916109f3565b820191906000526020600020905b8154815290600101906020018083116109d657829003601f168201915b5050505050815260200160078201805480602002602001604051908101604052809291908181526020016000905b82821015610bf257838290600052602060002090600402016040518060a0016040529081600082018054610a549061496f565b80601f0160208091040260200160405190810160405280929190818152602001828054610a809061496f565b8015610acd5780601f10610aa257610100808354040283529160200191610acd565b820191906000526020600020905b815481529060010190602001808311610ab057829003601f168201915b50505050508152602001600182018054610ae69061496f565b80601f0160208091040260200160405190810160405280929190818152602001828054610b129061496f565b8015610b5f5780601f10610b3457610100808354040283529160200191610b5f565b820191906000526020600020905b815481529060010190602001808311610b4257829003601f168201915b50505050508152602001600282015481526020016003820160009054906101000a900460ff161515151581526020016003820160019054906101000a900473ffffffffffffffffffffffffffffffffffffffff1673ffffffffffffffffffffffffffffffffffffffff1673ffffffffffffffffffffffffffffffffffffffff168152505081526020019060010190610a21565b505050508152602001600882018054610c0a9061496f565b80601f0160208091040260200160405190810160405280929190818152602001828054610c369061496f565b8015610c835780601f10610c5857610100808354040283529160200191610c83565b820191906000526020600020905b815481529060010190602001808311610c6657829003601f168201915b50505050508152505090506001151581608001511515148015610cae57506001151582606001511515145b15610cc457600182829450945094505050610cd1565b6000828294509450945050505b9193909250565b606060008060008473ffffffffffffffffffffffffffffffffffffffff1673ffffffffffffffffffffffffffffffffffffffff1681526020019081526020016000209050600115158160040160009054906101000a900460ff16151514610d74576040517f08c379a0000000000000000000000000000000000000000000000000000000008152600401610d6b906149ec565b60405180910390fd5b80600701805480602002602001604051908101604052809291908181526020016000905b82821015610f6957838290600052602060002090600402016040518060a0016040529081600082018054610dcb9061496f565b80601f0160208091040260200160405190810160405280929190818152602001828054610df79061496f565b8015610e445780601f10610e1957610100808354040283529160200191610e44565b820191906000526020600020905b815481529060010190602001808311610e2757829003601f168201915b50505050508152602001600182018054610e5d9061496f565b80601f0160208091040260200160405190810160405280929190818152602001828054610e899061496f565b8015610ed65780601f10610eab57610100808354040283529160200191610ed6565b820191906000526020600020905b815481529060010190602001808311610eb957829003601f168201915b50505050508152602001600282015481526020016003820160009054906101000a900460ff161515151581526020016003820160019054906101000a900473ffffffffffffffffffffffffffffffffffffffff1673ffffffffffffffffffffffffffffffffffffffff1673ffffffffffffffffffffffffffffffffffffffff168152505081526020019060010190610d98565b50505050915050919050565b610f7d613b86565b6000808373ffffffffffffffffffffffffffffffffffffffff1673ffffffffffffffffffffffffffffffffffffffff16815260200190815260200160002060405180610160016040529081600082018054610fd79061496f565b80601f01602080910402602001604051908101604052809291908181526020018280546110039061496f565b80156110505780601f1061102557610100808354040283529160200191611050565b820191906000526020600020905b81548152906001019060200180831161103357829003601f168201915b505050505081526020016001820180546110699061496f565b80601f01602080910402602001604051908101604052809291908181526020018280546110959061496f565b80156110e25780601f106110b7576101008083540402835291602001916110e2565b820191906000526020600020905b8154815290600101906020018083116110c557829003601f168201915b505050505081526020016002820180546110fb9061496f565b80601f01602080910402602001604051908101604052809291908181526020018280546111279061496f565b80156111745780601f1061114957610100808354040283529160200191611174565b820191906000526020600020905b81548152906001019060200180831161115757829003601f168201915b50505050508152602001600382015481526020016004820160009054906101000a900460ff161515151581526020016004820160019054906101000a900460ff161515151581526020016004820160029054906101000a900460ff161515151581526020016005820180546111e89061496f565b80601f01602080910402602001604051908101604052809291908181526020018280546112149061496f565b80156112615780601f1061123657610100808354040283529160200191611261565b820191906000526020600020905b81548152906001019060200180831161124457829003601f168201915b5050505050815260200160068201805461127a9061496f565b80601f01602080910402602001604051908101604052809291908181526020018280546112a69061496f565b80156112f35780601f106112c8576101008083540402835291602001916112f3565b820191906000526020600020905b8154815290600101906020018083116112d657829003601f168201915b5050505050815260200160078201805480602002602001604051908101604052809291908181526020016000905b828210156114f257838290600052602060002090600402016040518060a00160405290816000820180546113549061496f565b80601f01602080910402602001604051908101604052809291908181526020018280546113809061496f565b80156113cd5780601f106113a2576101008083540402835291602001916113cd565b820191906000526020600020905b8154815290600101906020018083116113b057829003601f168201915b505050505081526020016001820180546113e69061496f565b80601f01602080910402602001604051908101604052809291908181526020018280546114129061496f565b801561145f5780601f106114345761010080835404028352916020019161145f565b820191906000526020600020905b81548152906001019060200180831161144257829003601f168201915b50505050508152602001600282015481526020016003820160009054906101000a900460ff161515151581526020016003820160019054906101000a900473ffffffffffffffffffffffffffffffffffffffff1673ffffffffffffffffffffffffffffffffffffffff1673ffffffffffffffffffffffffffffffffffffffff168152505081526020019060010190611321565b50505050815260200160088201805461150a9061496f565b80601f01602080910402602001604051908101604052809291908181526020018280546115369061496f565b80156115835780601f1061155857610100808354040283529160200191611583565b820191906000526020600020905b81548152906001019060200180831161156657829003601f168201915b5050505050815250509050919050565b6000806000803373ffffffffffffffffffffffffffffffffffffffff1673ffffffffffffffffffffffffffffffffffffffff1681526020019081526020016000209050600115158160040160009054906101000a900460ff1615151461162e576040517f08c379a0000000000000000000000000000000000000000000000000000000008152600401611625906149ec565b60405180910390fd5b806007018054905091505090565b60008060003373ffffffffffffffffffffffffffffffffffffffff1673ffffffffffffffffffffffffffffffffffffffff16815260200190815260200160002060030154146116c0576040517f08c379a00000000000000000000000000000000000000000000000000000000081526004016116b790614a58565b60405180910390fd5b60008060003373ffffffffffffffffffffffffffffffffffffffff1673ffffffffffffffffffffffffffffffffffffffff1681526020019081526020016000209050878160000190816117139190614c24565b50868160010190816117259190614c24565b50858160020190816117379190614c24565b50848160080190816117499190614c24565b50428160030181905550818160040160006101000a81548160ff02191690831515021790555060018160040160016101000a81548160ff02191690831515021790555060018160040160026101000a81548160ff021916908315150217905550838160050190816117ba9190614c24565b50828160060190816117cc9190614c24565b506005339080600181540180825580915050600190039060005260206000200160009091909190916101000a81548173ffffffffffffffffffffffffffffffffffffffff021916908373ffffffffffffffffffffffffffffffffffffffff1602179055507fc5d2460186f7233c927e7db2dcc703c0e500b653ca82273b7bfad8045d85a470846040516020016118629190614929565b604051602081830303815290604052805190602001201461189b5760018160040160016101000a81548160ff0219169083151502179055505b600115156001856040516118af9190614929565b908152602001604051809103902060009054906101000a900460ff1615150361190d5760018160040160026101000a81548160ff02191690831515021790555060018160040160006101000a81548160ff0219169083151502179055505b60005b600580549050811015611aad5760008060006005848154811061193657611935614cf6565b5b9060005260206000200160009054906101000a900473ffffffffffffffffffffffffffffffffffffffff1673ffffffffffffffffffffffffffffffffffffffff1673ffffffffffffffffffffffffffffffffffffffff1681526020019081526020016000209050600115158160040160009054906101000a900460ff16151503611a995760005b8160070180549050811015611a9757866040516020016119dd9190614929565b60405160208183030381529060405280519060200120826007018281548110611a0957611a08614cf6565b5b9060005260206000209060040201600001604051602001611a2a9190614da8565b6040516020818303038152906040528051906020012003611a845760018460040160026101000a81548160ff02191690831515021790555060018460040160006101000a81548160ff021916908315150217905550611a97565b8080611a8f90614dee565b9150506119bd565b505b508080611aa590614dee565b915050611910565b5060005b600580549050811015611c5457600080600060058481548110611ad757611ad6614cf6565b5b9060005260206000200160009054906101000a900473ffffffffffffffffffffffffffffffffffffffff1673ffffffffffffffffffffffffffffffffffffffff1673ffffffffffffffffffffffffffffffffffffffff1681526020019081526020016000209050600115158160040160009054906101000a900460ff16151503611c405760005b8160070180549050811015611c3e5786604051602001611b7e9190614929565b60405160208183030381529060405280519060200120826007018281548110611baa57611ba9614cf6565b5b9060005260206000209060040201600001604051602001611bcb9190614da8565b6040516020818303038152906040528051906020012003611c2b576001826007018281548110611bfe57611bfd614cf6565b5b906000526020600020906004020160030160006101000a81548160ff021916908315150217905550611c3e565b8080611c3690614dee565b915050611b5e565b505b508080611c4c90614dee565b915050611ab1565b5060011515600185604051611c699190614929565b908152602001604051809103902060009054906101000a900460ff16151503611cc75760018160040160026101000a81548160ff02191690831515021790555060018160040160006101000a81548160ff0219169083151502179055505b5050505050505050565b60008060003373ffffffffffffffffffffffffffffffffffffffff1673ffffffffffffffffffffffffffffffffffffffff1681526020019081526020016000209050600115158160040160009054906101000a900460ff161515148015611d4d5750600115158160040160029054906101000a900460ff161515145b611d8c576040517f08c379a0000000000000000000000000000000000000000000000000000000008152600401611d83906149ec565b60405180910390fd5b611d94613b3f565b8381600001819052508281602001819052506301e1338042611db69190614e36565b816040018181525050600081606001901515908115158152505033816080019073ffffffffffffffffffffffffffffffffffffffff16908173ffffffffffffffffffffffffffffffffffffffff1681525050816007018190806001815401808255809150506001900390600052602060002090600402016000909190919091506000820151816000019081611e4b9190614c24565b506020820151816001019081611e619190614c24565b506040820151816002015560608201518160030160006101000a81548160ff02191690831515021790555060808201518160030160016101000a81548173ffffffffffffffffffffffffffffffffffffffff021916908373ffffffffffffffffffffffffffffffffffffffff16021790555050506000600285604051611ee79190614929565b908152602001604051809103902060006101000a81548160ff02191690831515021790555080600385604051611f1d9190614929565b90815260200160405180910390206000820151816000019081611f409190614c24565b506020820151816001019081611f569190614c24565b506040820151816002015560608201518160030160006101000a81548160ff02191690831515021790555060808201518160030160016101000a81548173ffffffffffffffffffffffffffffffffffffffff021916908373ffffffffffffffffffffffffffffffffffffffff1602179055509050506006819080600181540180825580915050600190039060005260206000209060040201600090919091909150600082015181600001908161200c9190614c24565b5060208201518160010190816120229190614c24565b506040820151816002015560608201518160030160006101000a81548160ff02191690831515021790555060808201518160030160016101000a81548173ffffffffffffffffffffffffffffffffffffffff021916908373ffffffffffffffffffffffffffffffffffffffff160217905550505050505050565b600460009054906101000a900473ffffffffffffffffffffffffffffffffffffffff1673ffffffffffffffffffffffffffffffffffffffff163373ffffffffffffffffffffffffffffffffffffffff161461212c576040517f08c379a000000000000000000000000000000000000000000000000000000000815260040161212390614eb6565b60405180910390fd5b60005b6005805490508110156122b8578173ffffffffffffffffffffffffffffffffffffffff166005828154811061216757612166614cf6565b5b9060005260206000200160009054906101000a900473ffffffffffffffffffffffffffffffffffffffff1673ffffffffffffffffffffffffffffffffffffffff16036122a557600560016005805490506121c19190614ed6565b815481106121d2576121d1614cf6565b5b9060005260206000200160009054906101000a900473ffffffffffffffffffffffffffffffffffffffff166005828154811061221157612210614cf6565b5b9060005260206000200160006101000a81548173ffffffffffffffffffffffffffffffffffffffff021916908373ffffffffffffffffffffffffffffffffffffffff160217905550600580548061226b5761226a614f0a565b5b6001900381819060005260206000200160006101000a81549073ffffffffffffffffffffffffffffffffffffffff021916905590556122b8565b80806122b090614dee565b91505061212f565b5050565b6001818051602081018201805184825260208301602085012081835280955050505050506000915054906101000a900460ff1681565b600460009054906101000a900473ffffffffffffffffffffffffffffffffffffffff1673ffffffffffffffffffffffffffffffffffffffff163373ffffffffffffffffffffffffffffffffffffffff1614612382576040517f08c379a000000000000000000000000000000000000000000000000000000000815260040161237990614fab565b60405180910390fd5b600015156001826040516123969190614929565b908152602001604051809103902060009054906101000a900460ff161515146123f4576040517f08c379a00000000000000000000000000000000000000000000000000000000081526004016123eb9061503d565b60405180910390fd5b600180826040516124059190614929565b908152602001604051809103902060006101000a81548160ff02191690831515021790555060005b6005805490508110156125645760008060006005848154811061245357612452614cf6565b5b9060005260206000200160009054906101000a900473ffffffffffffffffffffffffffffffffffffffff1673ffffffffffffffffffffffffffffffffffffffff1673ffffffffffffffffffffffffffffffffffffffff1681526020019081526020016000209050826040516020016124cb9190614929565b60405160208183030381529060405280519060200120816005016040516020016124f59190614da8565b60405160208183030381529060405280519060200120036125505760018160040160026101000a81548160ff02191690831515021790555060018160040160006101000a81548160ff02191690831515021790555050612564565b50808061255c90614dee565b91505061242d565b5050565b6060600460009054906101000a900473ffffffffffffffffffffffffffffffffffffffff1673ffffffffffffffffffffffffffffffffffffffff163373ffffffffffffffffffffffffffffffffffffffff16146125fa576040517f08c379a00000000000000000000000000000000000000000000000000000000081526004016125f1906150cf565b60405180910390fd5b600060058054905067ffffffffffffffff81111561261b5761261a613cd4565b5b60405190808252806020026020018201604052801561265457816020015b612641613b86565b8152602001906001900390816126395790505b50905060005b600580549050811015612ce5576000806005838154811061267e5761267d614cf6565b5b9060005260206000200160009054906101000a900473ffffffffffffffffffffffffffffffffffffffff1673ffffffffffffffffffffffffffffffffffffffff1673ffffffffffffffffffffffffffffffffffffffff168152602001908152602001600020604051806101600160405290816000820180546126ff9061496f565b80601f016020809104026020016040519081016040528092919081815260200182805461272b9061496f565b80156127785780601f1061274d57610100808354040283529160200191612778565b820191906000526020600020905b81548152906001019060200180831161275b57829003601f168201915b505050505081526020016001820180546127919061496f565b80601f01602080910402602001604051908101604052809291908181526020018280546127bd9061496f565b801561280a5780601f106127df5761010080835404028352916020019161280a565b820191906000526020600020905b8154815290600101906020018083116127ed57829003601f168201915b505050505081526020016002820180546128239061496f565b80601f016020809104026020016040519081016040528092919081815260200182805461284f9061496f565b801561289c5780601f106128715761010080835404028352916020019161289c565b820191906000526020600020905b81548152906001019060200180831161287f57829003601f168201915b50505050508152602001600382015481526020016004820160009054906101000a900460ff161515151581526020016004820160019054906101000a900460ff161515151581526020016004820160029054906101000a900460ff161515151581526020016005820180546129109061496f565b80601f016020809104026020016040519081016040528092919081815260200182805461293c9061496f565b80156129895780601f1061295e57610100808354040283529160200191612989565b820191906000526020600020905b81548152906001019060200180831161296c57829003601f168201915b505050505081526020016006820180546129a29061496f565b80601f01602080910402602001604051908101604052809291908181526020018280546129ce9061496f565b8015612a1b5780601f106129f057610100808354040283529160200191612a1b565b820191906000526020600020905b8154815290600101906020018083116129fe57829003601f168201915b5050505050815260200160078201805480602002602001604051908101604052809291908181526020016000905b82821015612c1a57838290600052602060002090600402016040518060a0016040529081600082018054612a7c9061496f565b80601f0160208091040260200160405190810160405280929190818152602001828054612aa89061496f565b8015612af55780601f10612aca57610100808354040283529160200191612af5565b820191906000526020600020905b815481529060010190602001808311612ad857829003601f168201915b50505050508152602001600182018054612b0e9061496f565b80601f0160208091040260200160405190810160405280929190818152602001828054612b3a9061496f565b8015612b875780601f10612b5c57610100808354040283529160200191612b87565b820191906000526020600020905b815481529060010190602001808311612b6a57829003601f168201915b50505050508152602001600282015481526020016003820160009054906101000a900460ff161515151581526020016003820160019054906101000a900473ffffffffffffffffffffffffffffffffffffffff1673ffffffffffffffffffffffffffffffffffffffff1673ffffffffffffffffffffffffffffffffffffffff168152505081526020019060010190612a49565b505050508152602001600882018054612c329061496f565b80601f0160208091040260200160405190810160405280929190818152602001828054612c5e9061496f565b8015612cab5780601f10612c8057610100808354040283529160200191612cab565b820191906000526020600020905b815481529060010190602001808311612c8e57829003601f168201915b505050505081525050828281518110612cc757612cc6614cf6565b5b60200260200101819052508080612cdd90614dee565b91505061265a565b508091505090565b60068181548110612cfd57600080fd5b9060005260206000209060040201600091509050806000018054612d209061496f565b80601f0160208091040260200160405190810160405280929190818152602001828054612d4c9061496f565b8015612d995780601f10612d6e57610100808354040283529160200191612d99565b820191906000526020600020905b815481529060010190602001808311612d7c57829003601f168201915b505050505090806001018054612dae9061496f565b80601f0160208091040260200160405190810160405280929190818152602001828054612dda9061496f565b8015612e275780601f10612dfc57610100808354040283529160200191612e27565b820191906000526020600020905b815481529060010190602001808311612e0a57829003601f168201915b5050505050908060020154908060030160009054906101000a900460ff16908060030160019054906101000a900473ffffffffffffffffffffffffffffffffffffffff16905085565b6002818051602081018201805184825260208301602085012081835280955050505050506000915054906101000a900460ff1681565b6060600460009054906101000a900473ffffffffffffffffffffffffffffffffffffffff1673ffffffffffffffffffffffffffffffffffffffff163373ffffffffffffffffffffffffffffffffffffffff1614612f38576040517f08c379a0000000000000000000000000000000000000000000000000000000008152600401612f2f90615161565b60405180910390fd5b6006805480602002602001604051908101604052809291908181526020016000905b8282101561312b57838290600052602060002090600402016040518060a0016040529081600082018054612f8d9061496f565b80601f0160208091040260200160405190810160405280929190818152602001828054612fb99061496f565b80156130065780601f10612fdb57610100808354040283529160200191613006565b820191906000526020600020905b815481529060010190602001808311612fe957829003601f168201915b5050505050815260200160018201805461301f9061496f565b80601f016020809104026020016040519081016040528092919081815260200182805461304b9061496f565b80156130985780601f1061306d57610100808354040283529160200191613098565b820191906000526020600020905b81548152906001019060200180831161307b57829003601f168201915b50505050508152602001600282015481526020016003820160009054906101000a900460ff161515151581526020016003820160019054906101000a900473ffffffffffffffffffffffffffffffffffffffff1673ffffffffffffffffffffffffffffffffffffffff1673ffffffffffffffffffffffffffffffffffffffff168152505081526020019060010190612f5a565b50505050905090565b60038180516020810182018051848252602083016020850120818352809550505050505060009150905080600001805461316d9061496f565b80601f01602080910402602001604051908101604052809291908181526020018280546131999061496f565b80156131e65780601f106131bb576101008083540402835291602001916131e6565b820191906000526020600020905b8154815290600101906020018083116131c957829003601f168201915b5050505050908060010180546131fb9061496f565b80601f01602080910402602001604051908101604052809291908181526020018280546132279061496f565b80156132745780601f1061324957610100808354040283529160200191613274565b820191906000526020600020905b81548152906001019060200180831161325757829003601f168201915b5050505050908060020154908060030160009054906101000a900460ff16908060030160019054906101000a900473ffffffffffffffffffffffffffffffffffffffff16905085565b6000600460009054906101000a900473ffffffffffffffffffffffffffffffffffffffff1673ffffffffffffffffffffffffffffffffffffffff163373ffffffffffffffffffffffffffffffffffffffff1614905090565b6000600460009054906101000a900473ffffffffffffffffffffffffffffffffffffffff1673ffffffffffffffffffffffffffffffffffffffff163373ffffffffffffffffffffffffffffffffffffffff16146133a7576040517f08c379a000000000000000000000000000000000000000000000000000000000815260040161339e906151cd565b60405180910390fd5b600015156002836040516133bb9190614929565b908152602001604051809103902060009054906101000a900460ff16151514613419576040517f08c379a000000000000000000000000000000000000000000000000000000000815260040161341090615239565b60405180910390fd5b600160028360405161342b9190614929565b908152602001604051809103902060006101000a81548160ff02191690831515021790555060005b6005805490508110156137155760008060006005848154811061347957613478614cf6565b5b9060005260206000200160009054906101000a900473ffffffffffffffffffffffffffffffffffffffff1673ffffffffffffffffffffffffffffffffffffffff1673ffffffffffffffffffffffffffffffffffffffff1681526020019081526020016000209050600115158160040160009054906101000a900460ff161515036137015760005b81600701805490508110156136ff57846040516020016135209190614929565b6040516020818303038152906040528051906020012082600701828154811061354c5761354b614cf6565b5b906000526020600020906004020160000160405160200161356d9190614da8565b60405160208183030381529060405280519060200120036136ec5760018260070182815481106135a05761359f614cf6565b5b906000526020600020906004020160030160006101000a81548160ff02191690831515021790555060016003866040516135da9190614929565b908152602001604051809103902060030160006101000a81548160ff02191690831515021790555060005b6006805490508110156136df57856040516020016136239190614929565b604051602081830303815290604052805190602001206006828154811061364d5761364c614cf6565b5b906000526020600020906004020160000160405160200161366e9190614da8565b60405160208183030381529060405280519060200120036136cc5760016006828154811061369f5761369e614cf6565b5b906000526020600020906004020160030160006101000a81548160ff0219169083151502179055506136df565b80806136d790614dee565b915050613605565b506001935050505061371b565b80806136f790614dee565b915050613500565b505b50808061370d90614dee565b915050613453565b50600090505b919050565b6000806000808473ffffffffffffffffffffffffffffffffffffffff1673ffffffffffffffffffffffffffffffffffffffff1681526020019081526020016000206003015414159050919050565b60006020528060005260406000206000915090508060000180546137919061496f565b80601f01602080910402602001604051908101604052809291908181526020018280546137bd9061496f565b801561380a5780601f106137df5761010080835404028352916020019161380a565b820191906000526020600020905b8154815290600101906020018083116137ed57829003601f168201915b50505050509080600101805461381f9061496f565b80601f016020809104026020016040519081016040528092919081815260200182805461384b9061496f565b80156138985780601f1061386d57610100808354040283529160200191613898565b820191906000526020600020905b81548152906001019060200180831161387b57829003601f168201915b5050505050908060020180546138ad9061496f565b80601f01602080910402602001604051908101604052809291908181526020018280546138d99061496f565b80156139265780601f106138fb57610100808354040283529160200191613926565b820191906000526020600020905b81548152906001019060200180831161390957829003601f168201915b5050505050908060030154908060040160009054906101000a900460ff16908060040160019054906101000a900460ff16908060040160029054906101000a900460ff169080600501805461397a9061496f565b80601f01602080910402602001604051908101604052809291908181526020018280546139a69061496f565b80156139f35780601f106139c8576101008083540402835291602001916139f3565b820191906000526020600020905b8154815290600101906020018083116139d657829003601f168201915b505050505090806006018054613a089061496f565b80601f0160208091040260200160405190810160405280929190818152602001828054613a349061496f565b8015613a815780601f10613a5657610100808354040283529160200191613a81565b820191906000526020600020905b815481529060010190602001808311613a6457829003601f168201915b505050505090806008018054613a969061496f565b80601f0160208091040260200160405190810160405280929190818152602001828054613ac29061496f565b8015613b0f5780601f10613ae457610100808354040283529160200191613b0f565b820191906000526020600020905b815481529060010190602001808311613af257829003601f168201915b505050505090508a565b600460009054906101000a900473ffffffffffffffffffffffffffffffffffffffff1681565b6040518060a00160405280606081526020016060815260200160008152602001600015158152602001600073ffffffffffffffffffffffffffffffffffffffff1681525090565b60405180610160016040528060608152602001606081526020016060815260200160008152602001600015158152602001600015158152602001600015158152602001606081526020016060815260200160608152602001606081525090565b6000604051905090565b600080fd5b600080fd5b6000819050919050565b613c0d81613bfa565b8114613c1857600080fd5b50565b600081359050613c2a81613c04565b92915050565b600060208284031215613c4657613c45613bf0565b5b6000613c5484828501613c1b565b91505092915050565b600073ffffffffffffffffffffffffffffffffffffffff82169050919050565b6000613c8882613c5d565b9050919050565b613c9881613c7d565b82525050565b6000602082019050613cb36000830184613c8f565b92915050565b600080fd5b600080fd5b6000601f19601f8301169050919050565b7f4e487b7100000000000000000000000000000000000000000000000000000000600052604160045260246000fd5b613d0c82613cc3565b810181811067ffffffffffffffff82111715613d2b57613d2a613cd4565b5b80604052505050565b6000613d3e613be6565b9050613d4a8282613d03565b919050565b600067ffffffffffffffff821115613d6a57613d69613cd4565b5b613d7382613cc3565b9050602081019050919050565b82818337600083830152505050565b6000613da2613d9d84613d4f565b613d34565b905082815260208101848484011115613dbe57613dbd613cbe565b5b613dc9848285613d80565b509392505050565b600082601f830112613de657613de5613cb9565b5b8135613df6848260208601613d8f565b91505092915050565b600060208284031215613e1557613e14613bf0565b5b600082013567ffffffffffffffff811115613e3357613e32613bf5565b5b613e3f84828501613dd1565b91505092915050565b60008115159050919050565b613e5d81613e48565b82525050565b600081519050919050565b600082825260208201905092915050565b60005b83811015613e9d578082015181840152602081019050613e82565b60008484015250505050565b6000613eb482613e63565b613ebe8185613e6e565b9350613ece818560208601613e7f565b613ed781613cc3565b840191505092915050565b613eeb81613bfa565b82525050565b613efa81613e48565b82525050565b613f0981613c7d565b82525050565b600060a0830160008301518482036000860152613f2c8282613ea9565b91505060208301518482036020860152613f468282613ea9565b9150506040830151613f5b6040860182613ee2565b506060830151613f6e6060860182613ef1565b506080830151613f816080860182613f00565b508091505092915050565b600081519050919050565b600082825260208201905092915050565b6000819050602082019050919050565b600060a0830160008301518482036000860152613fd58282613ea9565b91505060208301518482036020860152613fef8282613ea9565b91505060408301516140046040860182613ee2565b5060608301516140176060860182613ef1565b50608083015161402a6080860182613f00565b508091505092915050565b60006140418383613fb8565b905092915050565b6000602082019050919050565b600061406182613f8c565b61406b8185613f97565b93508360208202850161407d85613fa8565b8060005b858110156140b9578484038952815161409a8582614035565b94506140a583614049565b925060208a01995050600181019050614081565b50829750879550505050505092915050565b60006101608301600083015184820360008601526140e98282613ea9565b915050602083015184820360208601526141038282613ea9565b9150506040830151848203604086015261411d8282613ea9565b91505060608301516141326060860182613ee2565b5060808301516141456080860182613ef1565b5060a083015161415860a0860182613ef1565b5060c083015161416b60c0860182613ef1565b5060e083015184820360e08601526141838282613ea9565b91505061010083015184820361010086015261419f8282613ea9565b9150506101208301518482036101208601526141bb8282614056565b9150506101408301518482036101408601526141d78282613ea9565b9150508091505092915050565b60006060820190506141f96000830186613e54565b818103602083015261420b8185613f0f565b9050818103604083015261421f81846140cb565b9050949350505050565b61423281613c7d565b811461423d57600080fd5b50565b60008135905061424f81614229565b92915050565b60006020828403121561426b5761426a613bf0565b5b600061427984828501614240565b91505092915050565b600082825260208201905092915050565b600061429e82613f8c565b6142a88185614282565b9350836020820285016142ba85613fa8565b8060005b858110156142f657848403895281516142d78582614035565b94506142e283614049565b925060208a019950506001810190506142be565b50829750879550505050505092915050565b600060208201905081810360008301526143228184614293565b905092915050565b6000602082019050818103600083015261434481846140cb565b905092915050565b61435581613bfa565b82525050565b6000602082019050614370600083018461434c565b92915050565b61437f81613e48565b811461438a57600080fd5b50565b60008135905061439c81614376565b92915050565b600080600080600080600060e0888a0312156143c1576143c0613bf0565b5b600088013567ffffffffffffffff8111156143df576143de613bf5565b5b6143eb8a828b01613dd1565b975050602088013567ffffffffffffffff81111561440c5761440b613bf5565b5b6144188a828b01613dd1565b965050604088013567ffffffffffffffff81111561443957614438613bf5565b5b6144458a828b01613dd1565b955050606088013567ffffffffffffffff81111561446657614465613bf5565b5b6144728a828b01613dd1565b945050608088013567ffffffffffffffff81111561449357614492613bf5565b5b61449f8a828b01613dd1565b93505060a088013567ffffffffffffffff8111156144c0576144bf613bf5565b5b6144cc8a828b01613dd1565b92505060c06144dd8a828b0161438d565b91505092959891949750929550565b6000806040838503121561450357614502613bf0565b5b600083013567ffffffffffffffff81111561452157614520613bf5565b5b61452d85828601613dd1565b925050602083013567ffffffffffffffff81111561454e5761454d613bf5565b5b61455a85828601613dd1565b9150509250929050565b60006020820190506145796000830184613e54565b92915050565b600081519050919050565b600082825260208201905092915050565b6000819050602082019050919050565b60006101608301600083015184820360008601526145c98282613ea9565b915050602083015184820360208601526145e38282613ea9565b915050604083015184820360408601526145fd8282613ea9565b91505060608301516146126060860182613ee2565b5060808301516146256080860182613ef1565b5060a083015161463860a0860182613ef1565b5060c083015161464b60c0860182613ef1565b5060e083015184820360e08601526146638282613ea9565b91505061010083015184820361010086015261467f8282613ea9565b91505061012083015184820361012086015261469b8282614056565b9150506101408301518482036101408601526146b78282613ea9565b9150508091505092915050565b60006146d083836145ab565b905092915050565b6000602082019050919050565b60006146f08261457f565b6146fa818561458a565b93508360208202850161470c8561459b565b8060005b85811015614748578484038952815161472985826146c4565b9450614734836146d8565b925060208a01995050600181019050614710565b50829750879550505050505092915050565b6000602082019050818103600083015261477481846146e5565b905092915050565b600082825260208201905092915050565b600061479882613e63565b6147a2818561477c565b93506147b2818560208601613e7f565b6147bb81613cc3565b840191505092915050565b600060a08201905081810360008301526147e0818861478d565b905081810360208301526147f4818761478d565b9050614803604083018661434c565b6148106060830185613e54565b61481d6080830184613c8f565b9695505050505050565b6000610140820190508181036000830152614842818d61478d565b90508181036020830152614856818c61478d565b9050818103604083015261486a818b61478d565b9050614879606083018a61434c565b6148866080830189613e54565b61489360a0830188613e54565b6148a060c0830187613e54565b81810360e08301526148b2818661478d565b90508181036101008301526148c7818561478d565b90508181036101208301526148dc818461478d565b90509b9a5050505050505050505050565b600081905092915050565b600061490382613e63565b61490d81856148ed565b935061491d818560208601613e7f565b80840191505092915050565b600061493582846148f8565b915081905092915050565b7f4e487b7100000000000000000000000000000000000000000000000000000000600052602260045260246000fd5b6000600282049050600182168061498757607f821691505b60208210810361499a57614999614940565b5b50919050565b7f4964656e74697479206e6f742076657269666965642e00000000000000000000600082015250565b60006149d660168361477c565b91506149e1826149a0565b602082019050919050565b60006020820190508181036000830152614a05816149c9565b9050919050565b7f4964656e7469747920616c7265616479206578697374732e0000000000000000600082015250565b6000614a4260188361477c565b9150614a4d82614a0c565b602082019050919050565b60006020820190508181036000830152614a7181614a35565b9050919050565b60008190508160005260206000209050919050565b60006020601f8301049050919050565b600082821b905092915050565b600060088302614ada7fffffffffffffffffffffffffffffffffffffffffffffffffffffffffffffffff82614a9d565b614ae48683614a9d565b95508019841693508086168417925050509392505050565b6000819050919050565b6000614b21614b1c614b1784613bfa565b614afc565b613bfa565b9050919050565b6000819050919050565b614b3b83614b06565b614b4f614b4782614b28565b848454614aaa565b825550505050565b600090565b614b64614b57565b614b6f818484614b32565b505050565b5b81811015614b9357614b88600082614b5c565b600181019050614b75565b5050565b601f821115614bd857614ba981614a78565b614bb284614a8d565b81016020851015614bc1578190505b614bd5614bcd85614a8d565b830182614b74565b50505b505050565b600082821c905092915050565b6000614bfb60001984600802614bdd565b1980831691505092915050565b6000614c148383614bea565b9150826002028217905092915050565b614c2d82613e63565b67ffffffffffffffff811115614c4657614c45613cd4565b5b614c50825461496f565b614c5b828285614b97565b600060209050601f831160018114614c8e5760008415614c7c578287015190505b614c868582614c08565b865550614cee565b601f198416614c9c86614a78565b60005b82811015614cc457848901518255600182019150602085019450602081019050614c9f565b86831015614ce15784890151614cdd601f891682614bea565b8355505b6001600288020188555050505b505050505050565b7f4e487b7100000000000000000000000000000000000000000000000000000000600052603260045260246000fd5b60008154614d328161496f565b614d3c81866148ed565b94506001821660008114614d575760018114614d6c57614d9f565b60ff1983168652811515820286019350614d9f565b614d7585614a78565b60005b83811015614d9757815481890152600182019150602081019050614d78565b838801955050505b50505092915050565b6000614db48284614d25565b915081905092915050565b7f4e487b7100000000000000000000000000000000000000000000000000000000600052601160045260246000fd5b6000614df982613bfa565b91507fffffffffffffffffffffffffffffffffffffffffffffffffffffffffffffffff8203614e2b57614e2a614dbf565b5b600182019050919050565b6000614e4182613bfa565b9150614e4c83613bfa565b9250828201905080821115614e6457614e63614dbf565b5b92915050565b7f4f6e6c792061646d696e2063616e2072656a656374206964656e746974792e00600082015250565b6000614ea0601f8361477c565b9150614eab82614e6a565b602082019050919050565b60006020820190508181036000830152614ecf81614e93565b9050919050565b6000614ee182613bfa565b9150614eec83613bfa565b9250828203905081811115614f0457614f03614dbf565b5b92915050565b7f4e487b7100000000000000000000000000000000000000000000000000000000600052603160045260246000fd5b7f4f6e6c792061646d696e2063616e2076657269667920676f7665726e6d656e7460008201527f2063657274696669636174652e00000000000000000000000000000000000000602082015250565b6000614f95602d8361477c565b9150614fa082614f39565b604082019050919050565b60006020820190508181036000830152614fc481614f88565b9050919050565b7f476f7665726e6d656e7420636572746966696361746520616c7265616479207660008201527f657269666965642e000000000000000000000000000000000000000000000000602082015250565b600061502760288361477c565b915061503282614fcb565b604082019050919050565b600060208201905081810360008301526150568161501a565b9050919050565b7f4f6e6c792061646d696e2063616e207669657720616c6c206964656e7469746960008201527f65732e0000000000000000000000000000000000000000000000000000000000602082015250565b60006150b960238361477c565b91506150c48261505d565b604082019050919050565b600060208201905081810360008301526150e8816150ac565b9050919050565b7f4f6e6c792061646d696e2063616e207669657720756e7665726966696564206460008201527f6f63756d656e74732e0000000000000000000000000000000000000000000000602082015250565b600061514b60298361477c565b9150615156826150ef565b604082019050919050565b6000602082019050818103600083015261517a8161513e565b9050919050565b7f4f6e6c792061646d696e2063616e2076657269667920646f63756d656e742e00600082015250565b60006151b7601f8361477c565b91506151c282615181565b602082019050919050565b600060208201905081810360008301526151e6816151aa565b9050919050565b7f446f63756d656e7420616c72656164792076657269666965642e000000000000600082015250565b6000615223601a8361477c565b915061522e826151ed565b602082019050919050565b6000602082019050818103600083015261525281615216565b905091905056fea2646970667358221220810214f2caad960c1f80878ca15f1d20f622dd74ce3e416923bdc36d63f88c6264736f6c63430008120033",
  "immutableReferences": {},
  "source": "pragma solidity ^0.8.0;\r\n\r\ncontract IdentityManagement {\r\n    struct Identity {\r\n        string name;\r\n        string email;\r\n        string phoneNumber;\r\n        uint256 createdAt;\r\n        bool verified;\r\n        bool hasGovCertificate;\r\n        bool govCertificateVerified;\r\n        string govCertificateCID;\r\n        string currentPicCID;\r\n        Document[] AllDocuments;\r\n        string physicalAddress;\r\n    }\r\n\r\n    struct Document {\r\n        string documentCID;\r\n        string documentName;\r\n        uint256 validityUpTo;\r\n        bool verified;\r\n        address identityAddress;\r\n    }\r\n\r\n    mapping(address => Identity) public identities;\r\n    mapping(string => bool) public verifiedCertificates;\r\n    mapping(string => bool) public verifiedDocuments;\r\n    mapping(string => Document) public documents;\r\n\r\n    address public admin;\r\n    address[] public identityAddresses;\r\n    Document[] public allDocumentsforAdmin;\r\n\r\n    constructor() {\r\n        admin = msg.sender;\r\n        Identity storage newIdentity = identities[msg.sender];\r\n        newIdentity.name = \"Admin\";\r\n        newIdentity.email = \"admin@gmail.com\";\r\n        newIdentity.phoneNumber = \"1234567890\";\r\n        newIdentity.physicalAddress = \"Admin Address\";\r\n        newIdentity.createdAt = block.timestamp;\r\n        newIdentity.verified = true;\r\n        newIdentity.hasGovCertificate = true;\r\n        newIdentity.govCertificateVerified = true;\r\n        newIdentity.govCertificateCID = \"\";\r\n        newIdentity.currentPicCID = \"\";\r\n        identityAddresses.push(msg.sender);\r\n    }\r\n\r\n    function createIdentity(\r\n        string memory name,\r\n        string memory email,\r\n        string memory phoneNumber,\r\n        string memory physicalAddress,\r\n        string memory govCertificateCID,\r\n        string memory currentPicCID,\r\n        bool verified\r\n    ) public {\r\n        require(\r\n            identities[msg.sender].createdAt == 0,\r\n            \"Identity already exists.\"\r\n        );\r\n        Identity storage newIdentity = identities[msg.sender];\r\n        newIdentity.name = name;\r\n        newIdentity.email = email;\r\n        newIdentity.phoneNumber = phoneNumber;\r\n        newIdentity.physicalAddress = physicalAddress;\r\n        newIdentity.createdAt = block.timestamp;\r\n        newIdentity.verified = verified;\r\n        newIdentity.hasGovCertificate = true;\r\n        newIdentity.govCertificateVerified = true;\r\n        newIdentity.govCertificateCID = govCertificateCID;\r\n        newIdentity.currentPicCID = currentPicCID;\r\n        identityAddresses.push(msg.sender);\r\n\r\n        if (keccak256(abi.encodePacked(govCertificateCID)) != keccak256(\"\")) {\r\n            newIdentity.hasGovCertificate = true;\r\n        }\r\n\r\n        if (verifiedCertificates[govCertificateCID] == true) {\r\n            newIdentity.govCertificateVerified = true;\r\n            newIdentity.verified = true;\r\n        }\r\n\r\n        for (uint256 i = 0; i < identityAddresses.length; i++) {\r\n            Identity storage identity = identities[identityAddresses[i]];\r\n            if (identity.verified == true) {\r\n                for (uint256 j = 0; j < identity.AllDocuments.length; j++) {\r\n                    if (\r\n                        keccak256(\r\n                            abi.encodePacked(\r\n                                identity.AllDocuments[j].documentCID\r\n                            )\r\n                        ) == keccak256(abi.encodePacked(govCertificateCID))\r\n                    ) {\r\n                        newIdentity.govCertificateVerified = true;\r\n                        newIdentity.verified = true;\r\n                        break;\r\n                    }\r\n                }\r\n            }\r\n        }\r\n\r\n        for (uint256 i = 0; i < identityAddresses.length; i++) {\r\n            Identity storage identity = identities[identityAddresses[i]];\r\n            if (identity.verified == true) {\r\n                for (uint256 j = 0; j < identity.AllDocuments.length; j++) {\r\n                    if (\r\n                        keccak256(\r\n                            abi.encodePacked(\r\n                                identity.AllDocuments[j].documentCID\r\n                            )\r\n                        ) == keccak256(abi.encodePacked(govCertificateCID))\r\n                    ) {\r\n                        identity.AllDocuments[j].verified = true;\r\n                        break;\r\n                    }\r\n                }\r\n            }\r\n        }\r\n\r\n        if (verifiedCertificates[govCertificateCID] == true) {\r\n            newIdentity.govCertificateVerified = true;\r\n            newIdentity.verified = true;\r\n        }\r\n    }\r\n\r\n    function verifyGovCertificate(string memory govCertificateCID) public {\r\n        require(\r\n            msg.sender == admin,\r\n            \"Only admin can verify government certificate.\"\r\n        );\r\n        require(\r\n            verifiedCertificates[govCertificateCID] == false,\r\n            \"Government certificate already verified.\"\r\n        );\r\n        verifiedCertificates[govCertificateCID] = true;\r\n        for (uint256 i = 0; i < identityAddresses.length; i++) {\r\n            Identity storage identity = identities[identityAddresses[i]];\r\n            if (\r\n                keccak256(abi.encodePacked(identity.govCertificateCID)) ==\r\n                keccak256(abi.encodePacked(govCertificateCID))\r\n            ) {\r\n                identity.govCertificateVerified = true;\r\n                identity.verified = true;\r\n                break;\r\n            }\r\n        }\r\n    }\r\n\r\n    function rejectUser(address identityAddress) public {\r\n        require(msg.sender == admin, \"Only admin can reject identity.\");\r\n        for (uint256 i = 0; i < identityAddresses.length; i++) {\r\n            if (identityAddresses[i] == identityAddress) {\r\n                identityAddresses[i] = identityAddresses[\r\n                    identityAddresses.length - 1\r\n                ];\r\n                identityAddresses.pop();\r\n                break;\r\n            }\r\n        }\r\n    }\r\n\r\n    function uploadDocument(\r\n        string memory documentCID,\r\n        string memory documentName\r\n    ) public {\r\n        Identity storage identity = identities[msg.sender];\r\n        require(\r\n            identity.verified == true &&\r\n                identity.govCertificateVerified == true,\r\n            \"Identity not verified.\"\r\n        );\r\n        Document memory newDocument;\r\n        newDocument.documentCID = documentCID;\r\n        newDocument.documentName = documentName;\r\n        newDocument.validityUpTo = block.timestamp + 31536000;\r\n        newDocument.verified = false;\r\n        newDocument.identityAddress = msg.sender;\r\n        identity.AllDocuments.push(newDocument);\r\n\r\n        verifiedDocuments[documentCID] = false;\r\n\r\n        documents[documentCID] = newDocument;\r\n        allDocumentsforAdmin.push(newDocument);\r\n    }\r\n\r\n    function verifyDocument(string memory documentCID) public returns (bool) {\r\n        require(msg.sender == admin, \"Only admin can verify document.\");\r\n        require(\r\n            verifiedDocuments[documentCID] == false,\r\n            \"Document already verified.\"\r\n        );\r\n        verifiedDocuments[documentCID] = true;\r\n        for (uint256 i = 0; i < identityAddresses.length; i++) {\r\n            Identity storage identity = identities[identityAddresses[i]];\r\n            if (identity.verified == true) {\r\n                for (uint256 j = 0; j < identity.AllDocuments.length; j++) {\r\n                    if (\r\n                        keccak256(\r\n                            abi.encodePacked(\r\n                                identity.AllDocuments[j].documentCID\r\n                            )\r\n                        ) == keccak256(abi.encodePacked(documentCID))\r\n                    ) {\r\n                        identity.AllDocuments[j].verified = true;\r\n\r\n                        documents[documentCID].verified = true;\r\n\r\n                        for (\r\n                            uint256 k = 0;\r\n                            k < allDocumentsforAdmin.length;\r\n                            k++\r\n                        ) {\r\n                            if (\r\n                                keccak256(\r\n                                    abi.encodePacked(\r\n                                        allDocumentsforAdmin[k].documentCID\r\n                                    )\r\n                                ) == keccak256(abi.encodePacked(documentCID))\r\n                            ) {\r\n                                allDocumentsforAdmin[k].verified = true;\r\n                                break;\r\n                            }\r\n                        }\r\n                        return true;\r\n                    }\r\n                }\r\n            }\r\n        }\r\n        return false;\r\n    }\r\n\r\n    function getDocumentCount() public view returns (uint256) {\r\n        Identity storage identity = identities[msg.sender];\r\n        require(identity.verified == true, \"Identity not verified.\");\r\n        return identity.AllDocuments.length;\r\n    }\r\n\r\n    function getDocuments(\r\n        address identityAddress\r\n    ) public view returns (Document[] memory) {\r\n        Identity storage identity = identities[identityAddress];\r\n        require(identity.verified == true, \"Identity not verified.\");\r\n        return identity.AllDocuments;\r\n    }\r\n\r\n    function getAllDocument() public view returns (Document[] memory) {\r\n        require(\r\n            msg.sender == admin,\r\n            \"Only admin can view unverified documents.\"\r\n        );\r\n        return allDocumentsforAdmin;\r\n    }\r\n\r\n    function getIdentity(\r\n        address identityAddress\r\n    ) public view returns (Identity memory) {\r\n        return identities[identityAddress];\r\n    }\r\n\r\n    function getIdentities() public view returns (Identity[] memory) {\r\n        require(msg.sender == admin, \"Only admin can view all identities.\");\r\n        Identity[] memory allIdentities = new Identity[](\r\n            identityAddresses.length\r\n        );\r\n\r\n        for (uint256 i = 0; i < identityAddresses.length; i++) {\r\n            allIdentities[i] = identities[identityAddresses[i]];\r\n        }\r\n\r\n        return allIdentities;\r\n    }\r\n\r\n    //check if the address is registered\r\n    function isRegistered(address identityAddress) public view returns (bool) {\r\n        return identities[identityAddress].createdAt != 0;\r\n    }\r\n\r\n    function isAdmin() public view returns (bool) {\r\n        return msg.sender == admin;\r\n    }\r\n\r\n    function isVerified(\r\n        string memory documentCID\r\n    ) public view returns (bool, Document memory, Identity memory) {\r\n        Document memory document = documents[documentCID];\r\n        Identity memory identity = identities[document.identityAddress];\r\n        if (identity.verified == true && document.verified == true) {\r\n            return (true, document, identity);\r\n        } else {\r\n            return (false, document, identity);\r\n        }\r\n    }\r\n}\r\n",
  "sourcePath": "D:\\Blockchain\\testing\\contracts\\IdentityManagement.sol",
  "compiler": {
    "name": "solc",
    "version": "0.8.18+commit.87f61d96.Emscripten.clang"
  },
  "schemaVersion": "3.4.11",
  "updatedAt": "2023-04-15T18:07:27.403Z",
  "networkType": "ethereum",
  "devdoc": {
    "kind": "dev",
    "methods": {},
    "version": 1
  },
  "userdoc": {
    "kind": "user",
    "methods": {},
    "version": 1
  }
}